:020000040000FA
:1000000080313428080008007E1480318B1D0928B7
:100010000A2812280B1C0D280E2812288931D321FA
:10002000803132280B1F1528162832282100931EF4
:100030001A281B2824282000931E1F282028242843
:1000400089316521803132282100931C28282928F4
:1000500032282000931C2D282E2832288931102187
:10006000803132287E10090080313628F001F101FC
:10007000F201F301F401F501F6012000EF01A030D7
:10008000840000308500433088311C2080312030CE
:100090008400013085002D3088311C2080317E1095
:1000A00020008A31D92A200035088039BA003A0860
:1000B000BF003535BA003A08C500B41F6028612872
:1000C0006228451445080319662867287628450ADA
:1000D000031D6B286C2874280030B5000030B40074
:1000E0000030B3000030B200B4177E280030B500F5
:1000F0000030B4000030B3000030B200390880395D
:10010000BA003A08BF063935BA003A08C400B81F29
:100110008A288B288C284414440803199028912895
:10012000A028440A031D952896289E280030B9006F
:100130000030B8000030B7000030B600B817A8286B
:100140000030B9000030B8000030B7000030B60011
:1001500044080319AC28AD28B2284508031DB1286E
:10016000B228BB280030B5000030B4000030B30026
:100170000030B200A92A3208BA003A08A0003808B4
:100180008A315B22803120002108CB002008CA0080
:100190004A08BA00BB01BC01BD013D08C3003C08D0
:1001A000C2003B08C1003A08C0004B08BA00BB01BE
:1001B000BC01BD013D08C9003C08C8003B08C700A0
:1001C0003A08C6003308BA003A08A00037088A3156
:1001D0005B22803120002108CB002008CA004A0899
:1001E000BA00BB01BC01BD013A08C0073B08C13DD4
:1001F0003C08C23D3D08C33D4B08BA00BB01BC01F1
:10020000BD013A08C6073B08C73D3C08C83D3D084C
:10021000C93D3408BA003A08A00036088A315B228A
:10022000803120002108CB002008CA004A08BA000B
:10023000BB01BC01BD013A08C0073B08C13D3C08F9
:10024000C23D3D08C33D4B08BA00BB01BC01BD0126
:100250003A08C6073B08C73D3C08C83D3D08C93DB4
:100260000830C035C10DC20DC30D890B31293308CB
:10027000BA003A08A00036088A315B22803120009B
:100280002108CB002008CA004A08C0074B08C13D1E
:100290000030C23DC33D3208BA003A08A00037081A
:1002A0008A315B22803120002108CB002008CA005F
:1002B0004A08C0074B08C13D0030C23DC33D08306D
:1002C000C035C10DC20DC30D890B60293208BA00BB
:1002D0003A08A00036088A315B22803120002108CC
:1002E000CB002008CA004A08C0074B08C13D0030B7
:1002F000C23DC33D3308BA003A08A00038088A312D
:100300005B22803120002108CB002008CA004A0867
:10031000C6074B08C73D0030C83DC93D3408BA0088
:100320003A08A00037088A315B228031200021087A
:10033000CB002008CA004A08C6074B08C73D00305A
:10034000C83DC93D3408BA003A08A00038088A31CF
:100350005B22803120002108CB002008CA004A0817
:10036000BA004B08BB00BC01BD010830BA35BB0D5B
:10037000BC0DBD0D890BB6293A08C6073B08C73D21
:100380003C08C83D3D08C93D4008BA004108BB00D3
:100390004208BC004308BD001830BD36BC0CBB0C85
:1003A000BA0C890BCD293A08C6073B08C73D3C0863
:1003B000C83D3D08C93D0830C035C10DC20DC30D53
:1003C000890BDC2945084407BA00BB01BB0D3A087C
:1003D000823ECA00FF303B3DCB00052A0130C635C6
:1003E000C70DC80DC90D890BEF29C31FF829F929BD
:1003F000FA2946140130C035C10DC20DC30D890B59
:10040000FB29FF30CA07FF30CB3DC81F082A092A45
:10041000EE29C401C31F0D2A0E2A2A2AFF304005E7
:10042000BA00FF304105BB00FF304205BC007F3001
:100430004305BD003D083C043B043A040319212A4E
:10044000222A252AC401C40A2A2A461C282A292A23
:100450002A2A222A440803192E2A2F2A572A013031
:10046000C6070030C73D0030C83D0030C93D491CBB
:100470003A2A3B2A572A4608BA004708BB004808D0
:10048000BC004908BD000130BE00BD37BC0CBB0C30
:10049000BA0CBE0B452A3D08C9003C08C8003B0801
:1004A000C7003A08C6000130CA070030CB3D4B08F0
:1004B000803ABA0080303A02031D602AFF304A02B7
:1004C000031C632A642A6E2A7F302000C900803012
:1004D000C8000030C7000030C6009D2A20004B082D
:1004E000803ABA0080303A02031D782A01304A026D
:1004F00003187B2A7C2A872A00302000C90000309C
:10050000C8000030C7000030C600BF019D2A20008F
:100510004A08BA003A08C500FF30C605FF30C705D3
:100520007F30C8050030C905451C972A982A992AAA
:10053000C8174536BA003A08C9003F08BA003A0859
:10054000C9044908B5004808B4004708B300460884
:10055000B2000800883117208231003A0319B12A0D
:10056000B22AD32A89311F2182312000A00020081D
:10057000A3002308A0000230A036890BBC2A200863
:100580000339A100A20121082100DA00200022087D
:100590002100DB00200023080239A000A10120086F
:1005A000F4002108F50021005B08803A2000A0003B
:1005B0007508803A2002031DE02A740821005A02BF
:1005C0000318E32AE42A592B08302000A600003043
:1005D000A70026082704031DEE2AEF2AF82A210087
:1005E0003508B7003408B6007508B5007408B400C3
:1005F00020002708803AA00080302002031D022B33
:1006000001302602031C052B062B132B2000263558
:10061000B43E860087012635B63E84008501403F02
:10062000803F413F813FFF302000A607FF30A73DBC
:10063000A71F1B2B1C2BE92A0830A6000030A7009F
:1006400026082704031D252B262B332B22002108E7
:10065000A3002008A20021005B082200A1002100C5
:100660005A082200A00020002708803AA00080300D
:100670002002031D3D2B01302602031C402B412B81
:10068000502B20002635203E86000130870026357D
:10069000223E840001308500403F803F413F813F42
:1006A000FF302000A607FF30A73DA71F582B592B6E
:1006B000202B21003508CF003408CE000130200067
:1006C000A4000030A50020002435B43E8600870138
:1006D000403FA000413FA10021004F08803A200088
:1006E000A2002108803A2202031D792B2008210054
:1006F0004E0203187C2B7D2B872B20002435B43E23
:1007000086008701403F2100CE00413FCF000130ED
:100710002000A4070030A53D2508803AA0008030C5
:100720002002031D952B0A302402031C982B992BC1
:10073000632B21004E084F04031D9F2BA02BA42BDD
:100740000130CE000030CF007508803A2000A000B4
:1007500021005B08803A20002002031DB22B2100FB
:100760005A0874020318B52BB62B272C083020002A
:10077000A8000030A90028082904031DC02BC12BA4
:10078000CA2B22003508B7003408B6007508B5003A
:100790007408B40020002908803AA00080302002AC
:1007A000031DD42B01302802031CD72BD82BE72B99
:1007B00020002835343E8600013087002835363E3B
:1007C000840001308500403F803F413F813FFF3042
:1007D0002000A807FF30A93DA91FEF2BF02BBB2B52
:1007E0000830A8000030A90028082904031DF92BAF
:1007F000FA2B032C21002108A3002008A2005B088B
:10080000A1005A08A00020002908803AA0008030EA
:100810002002031D0D2C01302802031C102C112C6A
:100820001E2C20002835A03E860087012835A23ED8
:1008300084008501403F803F413F813FFF302000E1
:10084000A807FF30A93DA91F262C272CF42B043024
:100850002100CC000030CD002000A401A501200023
:100860002435343E860001308700403FA000413FE0
:10087000A1002108803AA20021004D08803A200002
:100880002202031D472C21004C08200020020318DF
:100890004A2C4B2C6D2C20002435343E8600013030
:1008A0008700403FA000413FA1002108803AA200FC
:1008B00080302202031D5E2C01302002031C612CBB
:1008C000622C6D2C20002435343E860001308700D8
:1008D000403F2100CC00413FCD0001302000A40763
:1008E0000030A53D2508803AA00080302002031D7D
:1008F0007B2C0A302402031C7E2C7F2C2F2C08001A
:10090000200053088039D4005408DD005335D4004A
:100910005408E400D21F8D2C8E2C8F2C6414640894
:100920000319932C942CA42C640A031D982C992C45
:10093000A12C0030D3000030D2000030D1000030B4
:10094000D000D217D301AC2C0030D3000030D2003D
:100950000030D1000030D0004F088039D400540856
:10096000DD064F35D4005408E500CE1FB82CB92C55
:10097000BA2C651465080319BE2CBF2CCF2C650A50
:10098000031DC32CC42CCC2C0030CF000030CE0073
:100990000030CD000030CC00CE17CF01D72C003076
:1009A000CF000030CE000030CD000030CC004F082A
:1009B0004E044D044C04031DDE2CDF2CF82C0030BB
:1009C000D3000030D2000030D1000030D0008030A1
:1009D000D2047F30D3045D08D4005408D3045308F4
:1009E000CF005208CE005108CD005008CC00332E65
:1009F0006408031DFC2CFD2C062D0030CF000030B8
:100A0000CE000030CD000030CC00332E6408D4007E
:100A1000D5015508D70065085402D600031CD7033A
:100A200056087F3EDE000030573DDF005308DC00F3
:100A30005208DB005108DA005008D9000030D3001A
:100A40000030D2000030D1000030D0000030E30090
:100A50000030E2000030E1000030E000E5016E2DE2
:100A600065080319342D352D4F2D0130D935DA0D98
:100A7000DB0DDC0D890B362D0130D035D10DD20DBB
:100A8000D30D890B3D2DE31F462D472D482D5014C6
:100A90000130E035E10DE20DE30D890B492D4F08E2
:100AA0005C02031D5D2D4E085B02031D5D2D4D088C
:100AB0005A02031D5D2D4C085902031C602D612D47
:100AC0006A2D63174C08D9024D08DA3B4E08DB3B10
:100AD0004F08DC3B0130D4005408E5071A306502AA
:100AE000031C732D742D302D5C085B045A045904CB
:100AF00003197B2D7C2D952D6014952D0130D0355B
:100B0000D10DD20DD30D890B7F2DE31F882D892D9B
:100B10008A2D50140130E035E10DE20DE30D890B13
:100B20008B2DFF30DE07FF30DF3DD21F982D992D32
:100B30007E2DE501E31F9D2D9E2DBA2DFF30600512
:100B4000D400FF306105D500FF306205D6007F304C
:100B50006305D70057085604550454040319B12DF2
:100B6000B22DB52DE501E50ABA2D501CB82DB92DD1
:100B7000BA2DB22D65080319BE2DBF2DE72D01300A
:100B8000D0070030D13D0030D23D0030D33D531C62
:100B9000CA2DCB2DE72D5008D4005108D50052089E
:100BA000D6005308D7000130D800D737D60CD50C63
:100BB000D40CD80BD52D5708D3005608D2005508B1
:100BC000D1005408D0000130DE070030DF3D5F085F
:100BD000803AD40080305402031DF02DFF305E02B5
:100BE000031CF32DF42D012EFF302000DE00003019
:100BF000DF000030D3000030D2000030D1000030E0
:100C0000D00020005F08803AD40080305402031DD9
:100C10000B2E01305E0203180E2E0F2E1B2E20000D
:100C2000DE01DF010030D3000030D2000030D100FF
:100C30000030D000DD0120005E08D4005408E4003C
:100C4000641C232E242E262ED2172A2E7F30D40069
:100C50005408D2056436D4005408D3005D08D4008B
:100C60005408D304EF2C08003D302000B500CC30F0
:100C7000B400CC30B300CD30B20000308931F42163
:100C8000863120002008CC002108CD00CE01CF0104
:100C90004F08A7004E08A6004D08A5004C08A40068
:100CA00000308C314F24863120002708B9002608F7
:100CB000B8002508B7002408B600803153208631DB
:100CC000200035082200DC00200034082200DB0070
:100CD000200033082200DA00200032082200D90068
:100CE0003E302000B5009930B4009930B3009A30FE
:100CF000B20001308931F421863120002008CC0077
:100D00002108CD00CE01CF014F08A7004E08A60054
:100D10004D08A5004C08A40000308C314F248631CA
:100D200020002708B9002608B8002508B7002408C5
:100D3000B600803153208631200035082200D800CB
:100D4000200034082200D700200033082200D600FB
:100D5000200032082200D50034302000D4000030BA
:100D6000D500FF30D8000330D9000030D600013064
:100D7000D700210051082000A100210050082000C8
:100D8000A0003C30A2000030A3008931B32186319D
:100D900020002108D1002008D0005008D83ED20001
:100DA000FF30513DD300DA01DB01DC01DD01200021
:100DB0005408DA075508DB3D5908803ACC005B0837
:100DC000803A4C02031DE62E5A0858020318E92EF9
:100DD000EA2EF32E20005908A1005808A0008931FE
:100DE0007B218631FB2E20005B08A1005A08A00061
:100DF00089317B21863101302000DC070030DD3D68
:100E00005D08803ACC0080304C02031D092F14305D
:100E10005C02031C0C2F0D2FD72E2000DC01DD01FE
:100E2000DC01DD01202F20005908A1005808A00096
:100E300089317B21863101302000DC070030DD3D27
:100E40005D08803ACC005308803A4C02031D2A2FDB
:100E500052085C02031C2D2F2E2F132F2000DC01C3
:100E6000DD01DC01DD0120005408DA025508DB3B1E
:100E70005B08803ACC005708803A4C02031D422F91
:100E800056085A020318452F462F4F2F20005708A7
:100E9000A1005608A00089317B218631572F200000
:100EA0005B08A1005A08A00089317B2186310130FE
:100EB0002000DC070030DD3D5D08803ACC0080304A
:100EC0004C02031D652F14305C02031C682F692F30
:100ED000332F8231AA22863100302000A000A100E9
:100EE00089317B2186310800A72F6F08A500700883
:100EF0002502A00071090318890AA10089319721F0
:100F00008731200021082100D10020002008210085
:100F1000D0007108803A2000A50080302502031D12
:100F2000932F6F0870020318962F972F992F220086
:100F30000C117108803A803C031DA12F700820001D
:100F40006F020318A42FA52FA72F22000C15200035
:100F50006F08A500A60171082606031DB12F7008B1
:100F60002506031DB42FB52F752F22000C15200068
:100F70006F08A500A60171082606031DC12F700881
:100F80002506031DC42FC52FDD2F8E315B2687312B
:100F900020006F08A50070082502A0007109031841
:100FA000890AA10089319721873120002108210079
:100FB000D100200020082100D00020006F08A500EB
:100FC000A60121004F0820002606031DEB2F21005B
:100FD0004E0820002506031DEE2FEF2FB72F080027
:100FE0002000990197019601111017082100EE00C9
:100FF000200016082100ED00313020009800080084
:101016000800080008000800813022009700080038
:1010260016302100970008002000110E890C0139A6
:101036000800640080010131890B1D28003420005E
:10104600EF01EF0A2100C801C90108007030210034
:1010560099009801220096010800D33021009E00D5
:101066009B019C0101309D000800FF3020009B0081
:101076009A01911004309C000800200021082200EB
:10108600CE00200020082200CD0008002000210804
:101096002200D000200020082200CF0008002000F7
:1010A60021082200D400200020082200D3000800D6
:1010B600200021082200D200200020082200D100B2
:1010C6000800200021082100EA0020002008210055
:1010D600E9000800200021082100E800200020087F
:1010E6002100E7000800200021082100E60020007A
:1010F60020082100E5000800200021082100E40066
:10110600200020082100E30008000C302600930090
:1011160091019201CF3025009E050800200021088C
:101126002100EC00200020082100EB000800F70059
:101136002000111E9F28A0289B28770823009A00CC
:1011460008000230F70077082000EF000130210088
:10115600C8000030C90008000330F70077082000F7
:10116600EF0002302100C8000030C900080004303A
:10117600F70077082000EF0003302100C800003098
:10118600C9000800210069086A040319CB28CC2885
:10119600D1286A088A0069080A00883127001610D3
:1011A60008002100670868040319DA28DB28E0280C
:1011B60068088A0067080A00883127009611080027
:1011C6002100650866040319E928EA28EF2866085D
:1011D6008A0065080A0088312700161208002100D7
:1011E600630864040319F828F928FE2864088A00AD
:1011F60063080A008831270096120800F7012000CC
:10120600111E062907290E2923009E1E0B290C29CB
:101216000E29F701F70A770808002000931021002D
:101226006B086C040319182919291E296C088A00F1
:101236006B080A00893108002000911E2329242901
:101246001F29F60123009D1C29292A292C291D1254
:101256001D16190808002000181D322933293A29BD
:101266001810780897007708960018143E29780811
:101276009700770896000800053026009A00980126
:1012860099010B302000A0000830A10088314020D1
:10129600893120009312210093160800DE302800C1
:1012A600960095012000931021009314033020002E
:1012B600A0000030A1008831912089310730280034
:1012C600970008002000931226001808FB007B08F0
:1012D600FC001908FB007B08FD007D08FA007C086D
:1012E600F90022004E088A004D080A0089310800DC
:1012F60020002108A3002008A200A336A20CA336D2
:10130600A20C220826009100200020080339A20022
:101316000430A235890B8C2926001308CF3920000A
:10132600220426009300080020002108803AA2002B
:1013360080302202031DA129013020020318A429AE
:10134600A529B22920002009A2002109A300A20A8A
:101356000319A30A2208A0002308A100B229080045
:101366002000A401A501201CB929BA29BE292208FA
:10137600A4072308A53D0130A235A30D890BBF297B
:101386000130A136A00C890BC42920082104031DB5
:10139600CD29CE29B6292508A1002408A0000800D9
:1013A6002700161CD729D829DB298831C520893181
:1013B6002700961DDF29E029E3298831D4208931C9
:1013C6002700161EE729E829EB298831E320893111
:1013D6002700961EEF29F029F3298831F22089315A
:1013E60008002000A3002308A200A20DA20D2100E0
:1013F6001D08200022068339220621009D001D14A7
:101406000330890B042A000021009D149D180C2A24
:101416000D2A092A1C082000A10021001B08200013
:10142600A00008008B311A238A31883129208A319D
:10143600883113208A3188310F208A3189313F2142
:101446008A31883130208A31893151218A31883177
:1014560088208A31883138208A318731F0278A31CD
:101466008A3137228A310800083023009F009030E5
:101476009D0024309E0067309B009C0100302000B8
:10148600A0000030A100883152208A3100302000AF
:10149600A0000030A10088315B208A310030200096
:1014A600A0000030A100883149208A31F6010800E9
:1014B6002000A800A401A5012008A200A30122087B
:1014C600A6002308A700281C692A6A2A6E2A26086D
:1014D600A4072708A53D0130A635A70D890B6F2A5D
:1014E6000310A80C2808031D792A7A2A662A2508DB
:1014F600A1002408A00008000030F700F800893198
:101506002E218A317A082100E0007908DF0058038D
:101516005904031D8F2A902A952A0130E1070030CD
:10152600E23DA32A58085904031D9A2A9B2AA32A96
:10153600E21B9E2A9F2AA32AFF30E107FF30E23DE5
:10154600080001302100D6070030D73D0E30560680
:101556005704031DAF2AB02AD82AF901FA01C82A6E
:10156600893101218A31003A0319BA2ABB2AC82ACD
:101576007908483E860001308700010888319A20A4
:101586008A310130F9070030FA3D7A08803AF800CE
:1015960080307802031DD12A05307902031CD42A33
:1015A600D52AB32A2100D601D70108008A3115228F
:1015B6008A318B170B17A4302000A0000A30A10037
:1015C600883191208A3122302000A0000830A10005
:1015D600883164208A31A4302000A0000830A100A0
:1015E60088316D208A31AF302000A0000830A1007C
:1015F600883176208A31BA302000A0000830A10058
:1016060088317F208A317F302000A0000A30A10077
:10161600883140208A318F312D278A318631342610
:101626008A318C31FC248A310E2B803134282200F9
:101636008C018D01333021008C00FF308D00C030CD
:1016460023008D0003308C0024008D018C012100C5
:10165600951722009D019E0127001610961116125D
:101666009612151495151516951614109411141234
:1016760094120C302000A0000830A10088316420AC
:101686008B310D302000A0000830A10088316D207C
:101696008B310E302000A0000830A1008831762062
:1016A6008B3102302000A0000030A10088317F205D
:1016B6008B318B15080003102000220D230DA4008A
:1016C6002408AA002A08031D692B6A2B732B0030F5
:1016D600A3000030A2000030A1000030A000D22BF1
:1016E6002008A4002108A5002208A6002308A700B8
:1016F6001F30A736A60CA50CA40C890B7C2B24083E
:10170600A8002808A900A217FF30A005FF30A105F0
:10171600FF30A2050030A3059630AA02AA1F942B1B
:10172600952BAD2B2A08803A973E03189B2B9C2BB2
:101736009D2B6A2B0130A336A20CA10CA00C890BA1
:101746009E2B0130A4002408AA07031DAB2BAC2B4B
:101756009D2BC22B20302A02031CB22BB32BBD2B90
:101766006A2B0130A035A10DA20DA30D890BB52B57
:101776000130AA022A08031DC12BC22BB42B29084B
:101786000319C62BC72BD22BA009A109A209A309AD
:10179600A00A0319A10A0319A20A0319A30A080039
:1017A600062C6F08A50072082502A000730903180D
:1017B600890AA100893197218B3120002108210057
:1017C600D100200020082100D0007308803A2000B4
:1017D600A50080302502031DF22B6F087202031844
:1017E600F52BF62BF82B22000C117308803A803C5F
:1017F600031D002C720820006F020318032C042C12
:10180600062C22000C1520006F08A500A6017308FF
:101816002606031D102C72082506031D132C142CF6
:10182600D42B22000C1120006F08A500A601730816
:101836002606031D202C72082506031D232C242CA6
:101846003C2C8D31AA258B3120006F08A50072082B
:101856002502A00073090318890AA100893197217E
:101866008B31200021082100D10020002008210012
:10187600D00020006F08A500A60121004D08200019
:101886002606031D4A2C21004C0820002506031DB0
:101896004D2C4E2C162C08002000AC002C080319E9
:1018A600552C562C6A2CA71F592C5A2C6A2C240905
:1018B600AE002509AF002609B0002709B100AE0A1F
:1018C6000319AF0A0319B00A0319B10A722C2708C3
:1018D600B1002608B0002508AF002408AE0027088E
:1018E600260425042404031D792C7A2C832C00302D
:1018F600A7000030A6000030A5000030A400FB2C95
:101906009630A8002808AD00932C0130A8002808BE
:10191600AD070130B136B00CAF0CAE0C890B8D2C77
:10192600FE303105031D982C992C882CAD2C0130E6
:10193600A8002808AD070130AE070030AF3D0030E3
:10194600B03D0030B13D0130B136B00CAF0CAE0C3D
:10195600890BA72CFF303105031DB22CB32C9A2C12
:10196600BD2C0130AD020130AE35AF0DB00DB10D5D
:10197600890BB72CB01BC02CC12CC72C02302D02F2
:101986000318C62CC72CB42C2D18CA2CCB2CD32C40
:10199600FF30AE05FF30AF057F30B005FF30B10533
:1019A6000310AD0C2D08A800A901AA01AB0118303F
:1019B600A835A90DAA0DAB0D890BDB2C2808AE04A2
:1019C6002908AF042A08B0042B08B1042C0803190F
:1019D600ED2CEE2CF32CA71FF12CF22CF32CB117C7
:1019E6003108A7003008A6002F08A5002E08A4007D
:1019F60008008231AA228C31210034083504031DE7
:101A0600052D062D3C2D36083704031D0B2D0C2DF8
:101A16003C2D38083904031D112D122D3C2D3A0892
:101A26003B04031D172D182D3C2D3C083D04031DBA
:101A36001D2D1E2D3C2D3E083F04031D232D242D58
:101A46003C2D40084104031D292D2A2D3C2D42081A
:101A56004304031D2F2D302D3C2D44084504031D42
:101A6600352D362D3C2D4608470403193B2D3C2DBC
:101A7600442D0130D4000030D500873174278C31D5
:101A8600A92D20082104031D492D4A2D802D220849
:101A96002304031D4F2D502D802D24082504031DDE
:101AA600552D562D802D26082704031D5B2D5C2DF4
:101AB600802D28082904031D612D622D802D2A08FA
:101AC6002B04031D672D682D802D2C082D04031D66
:101AD6006D2D6E2D802D2E082F04031D732D742D54
:101AE600802D30083104031D792D7A2D802D320882
:101AF600330403197F2D802D862DD401D5018B311A
:101B0600D3238C31A92D0230D4000030D50020001B
:101B16006F08FF3EA000FF3003180030A100893196
:101B260097218C31200021082100D10020002008B7
:101B36002100D000023020006F02031CA32DA42D2B
:101B4600A92D2100D801D90122000C11080021007D
:101B56002108F3002008F20001302000A300003025
:101B6600A40020002335A03E86008701403FA00048
:101B7600413FA1007308803AA2002108803A220260
:101B8600031DC72D200872020318CA2DCB2DD42D94
:101B960020002335A03E86008701403FF200413FEA
:101BA600F30020002335343E860001308700403F95
:101BB600A000413FA1007308803AA2002108803AA4
:101BC6002202031DE82D200872020318EB2DEC2DCE
:101BD600F62D20002335343E860001308700403F35
:101BE600F200413FF30001302000A3070030A43D7E
:101BF6002408803AA00080302002031D042E0A30FB
:101C06002302031C072E082EB42D2000A301A401D5
:101C160020002335A03E86008701403FA000413FBB
:101C2600A10073082106031D1A2E72082006031D43
:101C36001D2E1E2E252E2335A03E86008701003040
:101C4600C03FC13F2335B43E86008701403FA00018
:101C5600413FA10073082106031D332E720820069A
:101C6600031D362E372E3F2E2335343E8600013097
:101C760087000030C03FC13F0130A3070030A43DBC
:101C86002408803AA00080302002031D4C2E0A3022
:101C96002302031C4F2E502E0B2E72087304031DB5
:101CA600552E562E5A2E0130F2000030F300080051
:101CB6000430F0000030F1002000A301A401200050
:101CC6002335203E860001308700403FA000413F7B
:101CD600A1002108803AA2007108803A2202031D61
:101CE600762E700820020318792E7A2E9B2E20005D
:101CF6002335203E860001308700403FA000413F4B
:101D0600A1002108803AA20080302202031D8D2EF8
:101D160001302002031C902E912E9B2E200023358D
:101D2600203E860001308700403FF000413FF10031
:101D360020002335B43E86008701403FA000413F86
:101D4600A1002108803AA2007108803A2202031DF0
:101D5600AE2E700820020318B12EB22ED12E20000E
:101D66002335B43E86008701403FA000413FA100D5
:101D76002108803AA20080302202031DC42E0130C1
:101D86002002031CC72EC82ED12E20002335B43EB8
:101D960086008701403FF000413FF10001302000FE
:101DA600A3070030A43D2408803AA000803020021A
:101DB600031DDF2E0A302302031CE22EE32E622EC1
:101DC6002000A301A40120002335203E8600013017
:101DD6008700403FA000413FA10071082106031D76
:101DE600F62E70082006031DF92EFA2E022F233533
:101DF600203E8600013087000030C03FC13F2335BA
:101E0600B43E86008701403FA000413FA100710813
:101E16002106031D102F70082006031D132F142FF3
:101E26001B2F2335B43E860087010030C03FC13FDB
:101E36000130A3070030A43D2408803AA00080307A
:101E46002002031D282F0A302302031C2B2F2C2FC0
:101E5600E62E080035302000B5000630B4003730D5
:101E6600B300BD30B20021005F082000A4002100AD
:101E760060082000A500A601A70100308C314F2480
:101E86008F3120002708B9002608B8002508B700BA
:101E96002408B600803153208F3120003508CF004A
:101EA6003408CE003308CD003208CC004030D300D1
:101EB6007030D2000030D1000030D0008431802450
:101EC6008F3120004F08EA004E08E9004D08E8006F
:101ED6004C08E7003F30B500C030B4000030B30016
:101EE6000030B200210061082000A4002100620831
:101EF6002000A500890D893B8909A600A7000130AD
:101F06008C314F248F3120002708B9002608B800ED
:101F16002508B7002408B600803153208F312000F1
:101F26003508EE003408ED003308EC003208EB000B
:101F36002100480802392000E60066082200C80091
:101F460020006E08A3006D08A2006C08A1006B08B3
:101F5600A0008B315E238F31200020367F398038F8
:101F6600E60066082200C90020006A08A300690886
:101F7600A2006808A1006708A0008B315E238F319C
:101F8600200020367F398038E60066082200CA0025
:101F96005C082000A30022005B082000A2002200AB
:101FA6005A082000A100220059082000A0008B3109
:101FB6005E238F31200020367F398038E6006608A0
:101FC6002200CB0058082000A3002200570820005A
:101FD600A200220056082000A10022005508200079
:101FE600A0008B315E238F31200020367F39803868
:0A1FF600E60066082200CC00080097
:020000040001F9
:04000E00E43FFF3E8E
:00000001FF
