:020000040000FA
:1000000080313428080008007E1480318B1D0928B7
:100010000A2812280B1C0D280E2812288931F221DB
:10002000803132280B1F1528162832282100931EF4
:100030001A281B2824282000931E1F282028242843
:1000400089318421803132282100931C28282928D5
:1000500032282000931C2D282E28322889312F2168
:10006000803132287E10090080313628F001F101FC
:10007000F201F301F401F501F6012000EF01A030D7
:10008000840000308500433088313B2080312030AF
:100090008400013085002D3088313B2080317E1076
:1000A00020008A31F82A200035088039BA003A0841
:1000B000BF003535BA003A08C500B41F6028612872
:1000C0006228451445080319662867287628450ADA
:1000D000031D6B286C2874280030B5000030B40074
:1000E0000030B3000030B200B4177E280030B500F5
:1000F0000030B4000030B3000030B200390880395D
:10010000BA003A08BF063935BA003A08C400B81F29
:100110008A288B288C284414440803199028912895
:10012000A028440A031D952896289E280030B9006F
:100130000030B8000030B7000030B600B817A8286B
:100140000030B9000030B8000030B7000030B60011
:1001500044080319AC28AD28B2284508031DB1286E
:10016000B228BB280030B5000030B4000030B30026
:100170000030B200A92A3208BA003A08A0003808B4
:100180008A317A22803120002108CB002008CA0061
:100190004A08BA00BB01BC01BD013D08C3003C08D0
:1001A000C2003B08C1003A08C0004B08BA00BB01BE
:1001B000BC01BD013D08C9003C08C8003B08C700A0
:1001C0003A08C6003308BA003A08A00037088A3156
:1001D0007A22803120002108CB002008CA004A087A
:1001E000BA00BB01BC01BD013A08C0073B08C13DD4
:1001F0003C08C23D3D08C33D4B08BA00BB01BC01F1
:10020000BD013A08C6073B08C73D3C08C83D3D084C
:10021000C93D3408BA003A08A00036088A317A226B
:10022000803120002108CB002008CA004A08BA000B
:10023000BB01BC01BD013A08C0073B08C13D3C08F9
:10024000C23D3D08C33D4B08BA00BB01BC01BD0126
:100250003A08C6073B08C73D3C08C83D3D08C93DB4
:100260000830C035C10DC20DC30D890B31293308CB
:10027000BA003A08A00036088A317A22803120007C
:100280002108CB002008CA004A08C0074B08C13D1E
:100290000030C23DC33D3208BA003A08A00037081A
:1002A0008A317A22803120002108CB002008CA0040
:1002B0004A08C0074B08C13D0030C23DC33D08306D
:1002C000C035C10DC20DC30D890B60293208BA00BB
:1002D0003A08A00036088A317A22803120002108AD
:1002E000CB002008CA004A08C0074B08C13D0030B7
:1002F000C23DC33D3308BA003A08A00038088A312D
:100300007A22803120002108CB002008CA004A0848
:10031000C6074B08C73D0030C83DC93D3408BA0088
:100320003A08A00037088A317A228031200021085B
:10033000CB002008CA004A08C6074B08C73D00305A
:10034000C83DC93D3408BA003A08A00038088A31CF
:100350007A22803120002108CB002008CA004A08F8
:10036000BA004B08BB00BC01BD010830BA35BB0D5B
:10037000BC0DBD0D890BB6293A08C6073B08C73D21
:100380003C08C83D3D08C93D4008BA004108BB00D3
:100390004208BC004308BD001830BD36BC0CBB0C85
:1003A000BA0C890BCD293A08C6073B08C73D3C0863
:1003B000C83D3D08C93D0830C035C10DC20DC30D53
:1003C000890BDC2945084407BA00BB01BB0D3A087C
:1003D000823ECA00FF303B3DCB00052A0130C635C6
:1003E000C70DC80DC90D890BEF29C31FF829F929BD
:1003F000FA2946140130C035C10DC20DC30D890B59
:10040000FB29FF30CA07FF30CB3DC81F082A092A45
:10041000EE29C401C31F0D2A0E2A2A2AFF304005E7
:10042000BA00FF304105BB00FF304205BC007F3001
:100430004305BD003D083C043B043A040319212A4E
:10044000222A252AC401C40A2A2A461C282A292A23
:100450002A2A222A440803192E2A2F2A572A013031
:10046000C6070030C73D0030C83D0030C93D491CBB
:100470003A2A3B2A572A4608BA004708BB004808D0
:10048000BC004908BD000130BE00BD37BC0CBB0C30
:10049000BA0CBE0B452A3D08C9003C08C8003B0801
:1004A000C7003A08C6000130CA070030CB3D4B08F0
:1004B000803ABA0080303A02031D602AFF304A02B7
:1004C000031C632A642A6E2A7F302000C900803012
:1004D000C8000030C7000030C6009D2A20004B082D
:1004E000803ABA0080303A02031D782A01304A026D
:1004F00003187B2A7C2A872A00302000C90000309C
:10050000C8000030C7000030C600BF019D2A20008F
:100510004A08BA003A08C500FF30C605FF30C705D3
:100520007F30C8050030C905451C972A982A992AAA
:10053000C8174536BA003A08C9003F08BA003A0859
:10054000C9044908B5004808B4004708B300460884
:10055000B2000800883136208231003A0319B12AEE
:10056000B22AD32A89313E2182312000A0002008FE
:10057000A3002308A0000230A036890BBC2A200863
:100580000339A100A20121082100DA00200022087D
:100590002100DB00200023080239A000A10120086F
:1005A000F4002108F50021005B08803A2000A0003B
:1005B0007508803A2002031DE02A740821005A02BF
:1005C0000318E32AE42A592B08302000A600003043
:1005D000A70026082704031DEE2AEF2AF82A210087
:1005E0003508B7003408B6007508B5007408B400C3
:1005F00020002708803AA00080302002031D022B33
:1006000001302602031C052B062B132B2000263558
:10061000B43E860087012635B63E84008501403F02
:10062000803F413F813FFF302000A607FF30A73DBC
:10063000A71F1B2B1C2BE92A0830A6000030A7009F
:1006400026082704031D252B262B332B22002108E7
:10065000A3002008A20021005B082200A1002100C5
:100660005A082200A00020002708803AA00080300D
:100670002002031D3D2B01302602031C402B412B81
:10068000502B20002635203E86000130870026357D
:10069000223E840001308500403F803F413F813F42
:1006A000FF302000A607FF30A73DA71F582B592B6E
:1006B000202B21003508CF003408CE000130200067
:1006C000A4000030A50020002435B43E8600870138
:1006D000403FA000413FA10021004F08803A200088
:1006E000A2002108803A2202031D792B2008210054
:1006F0004E0203187C2B7D2B872B20002435B43E23
:1007000086008701403F2100CE00413FCF000130ED
:100710002000A4070030A53D2508803AA0008030C5
:100720002002031D952B0A302402031C982B992BC1
:10073000632B21004E084F04031D9F2BA02BA42BDD
:100740000130CE000030CF007508803A2000A000B4
:1007500021005B08803A20002002031DB22B2100FB
:100760005A0874020318B52BB62B272C083020002A
:10077000A8000030A90028082904031DC02BC12BA4
:10078000CA2B22003508B7003408B6007508B5003A
:100790007408B40020002908803AA00080302002AC
:1007A000031DD42B01302802031CD72BD82BE72B99
:1007B00020002835343E8600013087002835363E3B
:1007C000840001308500403F803F413F813FFF3042
:1007D0002000A807FF30A93DA91FEF2BF02BBB2B52
:1007E0000830A8000030A90028082904031DF92BAF
:1007F000FA2B032C21002108A3002008A2005B088B
:10080000A1005A08A00020002908803AA0008030EA
:100810002002031D0D2C01302802031C102C112C6A
:100820001E2C20002835A03E860087012835A23ED8
:1008300084008501403F803F413F813FFF302000E1
:10084000A807FF30A93DA91F262C272CF42B043024
:100850002100CC000030CD002000A401A501200023
:100860002435343E860001308700403FA000413FE0
:10087000A1002108803AA20021004D08803A200002
:100880002202031D472C21004C08200020020318DF
:100890004A2C4B2C6D2C20002435343E8600013030
:1008A0008700403FA000413FA1002108803AA200FC
:1008B00080302202031D5E2C01302002031C612CBB
:1008C000622C6D2C20002435343E860001308700D8
:1008D000403F2100CC00413FCD0001302000A40763
:1008E0000030A53D2508803AA00080302002031D7D
:1008F0007B2C0A302402031C7E2C7F2C2F2C08001A
:10090000200053088039D4005408DD005335D4004A
:100910005408E400D21F8D2C8E2C8F2C6414640894
:100920000319932C942CA42C640A031D982C992C45
:10093000A12C0030D3000030D2000030D1000030B4
:10094000D000D217D301AC2C0030D3000030D2003D
:100950000030D1000030D0004F088039D400540856
:10096000DD064F35D4005408E500CE1FB82CB92C55
:10097000BA2C651465080319BE2CBF2CCF2C650A50
:10098000031DC32CC42CCC2C0030CF000030CE0073
:100990000030CD000030CC00CE17CF01D72C003076
:1009A000CF000030CE000030CD000030CC004F082A
:1009B0004E044D044C04031DDE2CDF2CF82C0030BB
:1009C000D3000030D2000030D1000030D0008030A1
:1009D000D2047F30D3045D08D4005408D3045308F4
:1009E000CF005208CE005108CD005008CC00332E65
:1009F0006408031DFC2CFD2C062D0030CF000030B8
:100A0000CE000030CD000030CC00332E6408D4007E
:100A1000D5015508D70065085402D600031CD7033A
:100A200056087F3EDE000030573DDF005308DC00F3
:100A30005208DB005108DA005008D9000030D3001A
:100A40000030D2000030D1000030D0000030E30090
:100A50000030E2000030E1000030E000E5016E2DE2
:100A600065080319342D352D4F2D0130D935DA0D98
:100A7000DB0DDC0D890B362D0130D035D10DD20DBB
:100A8000D30D890B3D2DE31F462D472D482D5014C6
:100A90000130E035E10DE20DE30D890B492D4F08E2
:100AA0005C02031D5D2D4E085B02031D5D2D4D088C
:100AB0005A02031D5D2D4C085902031C602D612D47
:100AC0006A2D63174C08D9024D08DA3B4E08DB3B10
:100AD0004F08DC3B0130D4005408E5071A306502AA
:100AE000031C732D742D302D5C085B045A045904CB
:100AF00003197B2D7C2D952D6014952D0130D0355B
:100B0000D10DD20DD30D890B7F2DE31F882D892D9B
:100B10008A2D50140130E035E10DE20DE30D890B13
:100B20008B2DFF30DE07FF30DF3DD21F982D992D32
:100B30007E2DE501E31F9D2D9E2DBA2DFF30600512
:100B4000D400FF306105D500FF306205D6007F304C
:100B50006305D70057085604550454040319B12DF2
:100B6000B22DB52DE501E50ABA2D501CB82DB92DD1
:100B7000BA2DB22D65080319BE2DBF2DE72D01300A
:100B8000D0070030D13D0030D23D0030D33D531C62
:100B9000CA2DCB2DE72D5008D4005108D50052089E
:100BA000D6005308D7000130D800D737D60CD50C63
:100BB000D40CD80BD52D5708D3005608D2005508B1
:100BC000D1005408D0000130DE070030DF3D5F085F
:100BD000803AD40080305402031DF02DFF305E02B5
:100BE000031CF32DF42D012EFF302000DE00003019
:100BF000DF000030D3000030D2000030D1000030E0
:100C0000D00020005F08803AD40080305402031DD9
:100C10000B2E01305E0203180E2E0F2E1B2E20000D
:100C2000DE01DF010030D3000030D2000030D100FF
:100C30000030D000DD0120005E08D4005408E4003C
:100C4000641C232E242E262ED2172A2E7F30D40069
:100C50005408D2056436D4005408D3005D08D4008B
:100C60005408D304EF2C08003D302000B500CC30F0
:100C7000B400CC30B300CD30B20000308A31132242
:100C8000863120002008CC002108CD00CE01CF0104
:100C90004F08A7004E08A6004D08A5004C08A40068
:100CA00000308C31FD24863120002708B900260849
:100CB000B8002508B7002408B600803153208631DB
:100CC000200035082200DC00200034082200DB0070
:100CD000200033082200DA00200032082200D90068
:100CE0003E302000B5009930B4009930B3009A30FE
:100CF000B20001308A311322863120002008CC0056
:100D00002108CD00CE01CF014F08A7004E08A60054
:100D10004D08A5004C08A40000308C31FD2486311C
:100D200020002708B9002608B8002508B7002408C5
:100D3000B600803153208631200035082200D800CB
:100D4000200034082200D700200033082200D600FB
:100D5000200032082200D50034302000D4000030BA
:100D6000D500FF30D8000330D9000030D600013064
:100D7000D700210051082000A100210050082000C8
:100D8000A0003C30A2000030A3008931D22186317E
:100D900020002108D1002008D0005008D83ED20001
:100DA000FF30513DD300DA01DB01DC01DD01200021
:100DB0005408DA075508DB3D5908803ACC005B0837
:100DC000803A4C02031DE62E5A0858020318E92EF9
:100DD000EA2EF32E20005908A1005808A0008931FE
:100DE0009A218631FB2E20005B08A1005A08A00042
:100DF00089319A21863101302000DC070030DD3D49
:100E00005D08803ACC0080304C02031D092F14305D
:100E10005C02031C0C2F0D2FD72E2000DC01DD01FE
:100E2000DC01DD01202F20005908A1005808A00096
:100E300089319A21863101302000DC070030DD3D08
:100E40005D08803ACC005308803A4C02031D2A2FDB
:100E500052085C02031C2D2F2E2F132F2000DC01C3
:100E6000DD01DC01DD0120005408DA025508DB3B1E
:100E70005B08803ACC005708803A4C02031D422F91
:100E800056085A020318452F462F4F2F20005708A7
:100E9000A1005608A00089319A218631572F2000E1
:100EA0005B08A1005A08A00089319A2186310130DF
:100EB0002000DC070030DD3D5D08803ACC0080304A
:100EC0004C02031D652F14305C02031C682F692F30
:100ED000332F8231AA22863100302000A000A100E9
:100EE00089319A2186310800A72F6F08A500700864
:100EF0002502A00071090318890AA1008931B621D1
:100F00008731200021082100D10020002008210085
:100F1000D0007108803A2000A50080302502031D12
:100F2000932F6F0870020318962F972F992F220086
:100F30000C117108803A803C031DA12F700820001D
:100F40006F020318A42FA52FA72F22000C15200035
:100F50006F08A500A60171082606031DB12F7008B1
:100F60002506031DB42FB52F752F22000C15200068
:100F70006F08A500A60171082606031DC12F700881
:100F80002506031DC42FC52FDD2F8E315B2687312B
:100F900020006F08A50070082502A0007109031841
:100FA000890AA1008931B62187312000210821005A
:100FB000D100200020082100D00020006F08A500EB
:100FC000A60121004F0820002606031DEB2F21005B
:100FD0004E0820002506031DEE2FEF2FB72F080027
:100FE0002000990197019601111017082100EE00C9
:100FF000200016082100ED000130200098000800B4
:1010540008000800080008008130220097000800FA
:1010640016302100970008002000110E890C013968
:101074000800640080010131890B3C280034200001
:10108400EF01EF0A2100C801C901080070302100F6
:1010940099009801220096010800D33021009E0097
:1010A4009B019C0101309D000800FF3020009B0043
:1010B4009A01911004309C000800200021082200AD
:1010C400CE00200020082200CD00080020002108C6
:1010D4002200D000200020082200CF0008002000B9
:1010E40021082200D400200020082200D300080098
:1010F400200021082200D200200020082200D10074
:101104000800200021082100EA0020002008210016
:10111400E9000800200021082100E8002000200840
:101124002100E7000800200021082100E60020003B
:1011340020082100E5000800200021082100E40027
:10114400200020082100E30008000C302600930052
:1011540091019201CF3025009E050800200021084E
:101164002100EC00200020082100EB000800F7001B
:101174002000111EBE28BF28BA28770823009A0031
:1011840008000230F70077082000EF00013021004A
:10119400C8000030C90008000330F70077082000B9
:1011A400EF0002302100C8000030C90008000430FC
:1011B400F70077082000EF0003302100C80000305A
:1011C400C9000800210069086A040319EA28EB2809
:1011D400F0286A088A0069080A0088312700161076
:1011E40008002100670868040319F928FA28FF2871
:1011F40068088A0067080A008831270096110800E9
:101204002100650866040319082909290E296608BE
:101214008A0065080A008931270016120800210097
:10122400630864040319172918291D2964088A000E
:1012340063080A008931270096120800F70120008C
:10124400111E252926292D2923009E1E2A292B29F2
:101254002D29F701F70A77080800200093102100D0
:101264006B086C040319372938293D296C088A0056
:101274006B080A00893108002000911E4229432985
:101284003E29F60123009D1C482949294B291D129A
:101294001D16190808002000181D51295229592922
:1012A4001810780897007708960018145D297808B4
:1012B4009700770896000800053026009A009801E8
:1012C40099012A302000A0000830A10088315F2055
:1012D400893120009312210093160800DE30280083
:1012E40096009501200093102100931403302000F0
:1012F400A0000030A1008831B020893107302800D7
:10130400970008002000931226001808FB007B08B1
:10131400FC001908FB007B08FD007D08FA007C082E
:10132400F90022004E088A004D080A00893108009D
:1013340020002108A3002008A200A336A20CA33693
:10134400A20C220826009100200020080339A200E4
:101354000430A235890BAB2926001308CF392000AD
:10136400220426009300080020002108803AA200ED
:1013740080302202031DC029013020020318C32932
:10138400C429D12920002009A2002109A300A20A0E
:101394000319A30A2208A0002308A100D1290800E8
:1013A4002000A401A501201CD829D929DD2922085F
:1013B400A4072308A53D0130A235A30D890BDE291E
:1013C4000130A136A00C890BE32920082104031D58
:1013D400EC29ED29D5292508A1002408A00008003E
:1013E4002700161CF629F729FA298831E4208931C7
:1013F4002700961DFE29FF29022A8831F32089310E
:101404002700161E062A072A0A2A89310221893151
:101414002700961E0E2A0F2A122A8931112189319A
:1014240008002000A3002308A200A20DA20D2100A1
:101434001D08200022068339220621009D001D1468
:101444000330890B232A000021009D149D182B2AA8
:101454002C2A282A1C082000A10021001B08200097
:10146400A00008008B3139238A31883148208A3121
:10147400883132208A3188312E208A3189315E21A7
:101484008A3188314F208A31893170218A318831FB
:10149400A7208A31883157208A318731F0278A3151
:1014A4008A3156228A310800083023009F00903088
:1014B4009D0024309E0067309B009C01003020007A
:1014C400A0000030A100883171208A310030200052
:1014D400A0000030A10088317A208A310030200039
:1014E400A0000030A100883168208A31F60108008C
:1014F4002000A800A401A5012008A200A30122083D
:10150400A6002308A700281C882A892A8D2A2608D1
:10151400A4072708A53D0130A635A70D890B8E2AFF
:101524000310A80C2808031D982A992A852A25083F
:10153400A1002408A00008000030F700F800893159
:101544004D218A317A082100E0007908DF00580330
:101554005904031DAE2AAF2AB42A0130E107003032
:10156400E23DC22A58085904031DB92ABA2AC22ADC
:10157400E21BBD2ABE2AC22AFF30E107FF30E23D4A
:10158400080001302100D6070030D73D0E30560642
:101594005704031DCE2ACF2AF72AF901FA01E72AB4
:1015A400893120218A31003A0319D92ADA2AE72A13
:1015B4007908483E86000130870001088831B92047
:1015C4008A310130F9070030FA3D7A08803AF80090
:1015D40080307802031DF02A05307902031CF32AB7
:1015E400F42AD22A2100D601D70108008A313422F4
:1015F4008A318B170B17C3302000A0000A30A100DA
:101604008831B0208A3141302000A0000830A10088
:10161400883183208A31C3302000A0000830A10023
:1016240088318C208A31CE302000A0000830A100FF
:10163400883195208A31D9302000A0000830A100DB
:1016440088319E208A319E302000A0000A30A100FB
:1016540088315F208A318F312D278A3186313426B3
:101664008A318C316E248A312D2B8031342822002A
:101674008C018D01333021008C00FF308D00C0308F
:1016840023008D0003308C0024008D018C01210087
:10169400951722009D019E0127001610961116121F
:1016A40096121514951515169516141094111412F6
:1016B40094122B302000A0000830A1008831832030
:1016C4008B312C302000A0000830A10088318C2000
:1016D4008B312D302000A0000830A10088319520E6
:1016E4008B3102302000A0000030A10088319E2000
:1016F4008B318B15080003102000220D230DA4004C
:101704002408AA002A08031D882B892B922B003059
:10171400A3000030A2000030A1000030A000F12B93
:101724002008A4002108A5002208A6002308A70079
:101734001F30A736A60CA50CA40C890B9B2B2408E0
:10174400A8002808A900A217FF30A005FF30A105B2
:10175400FF30A2050030A3059630AA02AA1FB32BBE
:10176400B42BCC2B2A08803A973E0318BA2BBB2BF8
:10177400BC2B892B0130A336A20CA10CA00C890B25
:10178400BD2B0130A4002408AA07031DCA2BCB2BB0
:10179400BC2BE12B20302A02031CD12BD22BDC2BB7
:1017A400892B0130A035A10DA20DA30D890BD42BDB
:1017B4000130AA022A08031DE02BE12BD32B2908B0
:1017C4000319E52BE62BF12BA009A109A209A30912
:1017D400A00A0319A10A0319A20A0319A30A0800FB
:1017E400252C6F08A50072082502A00073090318B0
:1017F400890AA1008931B6218B31200021082100FA
:10180400D100200020082100D0007308803A200075
:10181400A50080302502031D112C6F0872020318E5
:10182400142C152C172C22000C117308803A803CC0
:10183400031D1F2C720820006F020318222C232C76
:10184400252C22000C1520006F08A500A6017308A2
:101854002606031D2F2C72082506031D322C332C5B
:10186400F32B22000C1120006F08A500A6017308B9
:101874002606031D3F2C72082506031D422C432C0B
:101884005B2C8D31AA258B3120006F08A5007208CE
:101894002502A00073090318890AA1008931B62121
:1018A4008B31200021082100D100200020082100D4
:1018B400D00020006F08A500A60121004D082000DB
:1018C4002606031D692C21004C0820002506031D53
:1018D4006C2C6D2C352C08008231AA228C3121000D
:1018E40034083504031D772C782CAE2C36083704C5
:1018F400031D7D2C7E2CAE2C38083904031D832C4B
:10190400842CAE2C3A083B04031D892C8A2CAE2C63
:101914003C083D04031D8F2C902CAE2C3E083F0444
:10192400031D952C962CAE2C40084104031D9B2CC2
:101934009C2CAE2C42084304031DA12CA22CAE2CDB
:1019440044084504031DA72CA82CAE2C46084704C4
:101954000319AD2CAE2CB62C0130D4000030D500C8
:10196400873174278C31FC2C20082104031DBB2CE7
:10197400BC2CF22C22082304031DC12CC22CF22CF3
:1019840024082504031DC72CC82CF22C2608270480
:10199400031DCD2CCE2CF22C28082904031DD32C96
:1019A400D42CF22C2A082B04031DD92CDA2CF22C6B
:1019B4002C082D04031DDF2CE02CF22C2E082F0400
:1019C400031DE52CE62CF22C30083104031DEB2C0E
:1019D400EC2CF22C320833040319F12CF22CF82CE1
:1019E400D401D5018B31F2238C31FC2C0230D4008C
:1019F4000030D50008002000AC002C080319032D8A
:101A0400042D182DA71F072D082D182D2409AE000D
:101A14002509AF002609B0002709B100AE0A031951
:101A2400AF0A0319B00A0319B10A202D2708B1001F
:101A34002608B0002508AF002408AE0027082604B5
:101A440025042404031D272D282D312D0030A70043
:101A54000030A6000030A5000030A400A92D963067
:101A6400A8002808AD00412D0130A8002808AD07C2
:101A74000130B136B00CAF0CAE0C890B3B2DFE30EF
:101A84003105031D462D472D362D5B2D0130A80051
:101A94002808AD070130AE070030AF3D0030B03D3F
:101AA4000030B13D0130B136B00CAF0CAE0C890B37
:101AB400552DFF303105031D602D612D482D6B2DF3
:101AC4000130AD020130AE35AF0DB00DB10D890B53
:101AD400652DB01B6E2D6F2D752D02302D02031850
:101AE400742D752D622D2D18782D792D812DFF30B3
:101AF400AE05FF30AF057F30B005FF30B1050310F0
:101B0400AD0C2D08A800A901AA01AB011830A83515
:101B1400A90DAA0DAB0D890B892D2808AE0429083F
:101B2400AF042A08B0042B08B1042C0803199B2D18
:101B34009C2DA12DA71F9F2DA02DA12DB1173108DC
:101B4400A7003008A6002F08A5002E08A40008004E
:101B540021002108F3002008F20001302000A30036
:101B64000030A40020002335A03E86008701403FBA
:101B7400A000413FA1007308803AA2002108803AE6
:101B84002202031DC72D200872020318CA2DCB2D73
:101B9400D42D20002335A03E86008701403FF2006B
:101BA400413FF30020002335343E86000130870096
:101BB400403FA000413FA1007308803AA2002108E1
:101BC400803A2202031DE82D200872020318EB2D2F
:101BD400EC2DF62D20002335343E8600013087009D
:101BE400403FF200413FF30001302000A3070030E2
:101BF400A43D2408803AA00080302002031D042E56
:101C04000A302302031C072E082EB42D2000A30142
:101C1400A40120002335A03E86008701403FA00098
:101C2400413FA10073082106031D1A2E72082006E5
:101C3400031D1D2E1E2E252E2335A03E8600870152
:101C44000030C03FC13F2335B43E86008701403F8A
:101C5400A000413FA10073082106031D332E720822
:101C64002006031D362E372E3F2E2335343E8600A4
:101C7400013087000030C03FC13F0130A30700306E
:101C8400A43D2408803AA00080302002031D4C2E7D
:101C94000A302302031C4F2E502E0B2E720873049D
:101CA400031D552E562E5A2E0130F2000030F3003B
:101CB40008000430F0000030F1002000A301A4016A
:101CC40020002335203E860001308700403FA000DD
:101CD400413FA1002108803AA2007108803A220203
:101CE400031D762E700820020318792E7A2E9B2E5F
:101CF40020002335203E860001308700403FA000AD
:101D0400413FA1002108803AA20080302202031D35
:101D14008D2E01302002031C902E912E9B2E20002C
:101D24002335203E860001308700403FF000413FCC
:101D3400F10020002335B43E86008701403FA00017
:101D4400413FA1002108803AA2007108803A220292
:101D5400031DAE2E700820020318B12EB22ED12E10
:101D640020002335B43E86008701403FA000413F58
:101D7400A1002108803AA20080302202031DC42E53
:101D840001302002031CC72EC82ED12E200023357B
:101D9400B43E86008701403FF000413FF10001302E
:101DA4002000A3070030A43D2408803AA00080301E
:101DB4002002031DDF2E0A302302031CE22EE32E31
:101DC400622E2000A301A40120002335203E8600BA
:101DD40001308700403FA000413FA1007108210667
:101DE400031DF62E70082006031DF92EFA2E022F6D
:101DF4002335203E8600013087000030C03FC13FBC
:101E04002335B43E86008701403FA000413FA10036
:101E140071082106031D102F70082006031D132FBF
:101E2400142F1B2F2335B43E860087010030C03F9A
:101E3400C13F0130A3070030A43D2408803AA0002C
:101E440080302002031D282F0A302302031C2B2F6D
:101E54002C2FE62E080035302000B5000630B400E3
:101E64003730B300BD30B20021005F082000A40069
:101E7400210060082000A500A601A70100308C31D4
:101E8400FD248F3120002708B9002608B800250852
:101E9400B7002408B600803153208F312000350864
:101EA400CF003408CE003308CD003208CC004030D7
:101EB400D3007030D2000030D1000030D000843123
:101EC40080248F3120004F08EA004E08E9004D08B5
:101ED400E8004C08E7003F30B500C030B4000030E3
:101EE400B3000030B200210061082000A4002100EA
:101EF40062082000A500890D893B8909A600A70076
:101F040001308C31FD248F3120002708B9002608C8
:101F1400B8002508B7002408B600803153208F315B
:101F240020003508EE003408ED003308EC003208D8
:101F3400EB002100480802392000E6006608220070
:101F4400C80020006E08A3006D08A2006C08A10060
:101F54006B08A0008B317D238F31200020367F3920
:101F64008038E60066082200C90020006A08A30041
:101F74006908A2006808A1006708A0008B317D23CE
:101F84008F31200020367F398038E6006608220031
:101F9400CA005C082000A30022005B082000A20005
:101FA40022005A082000A100220059082000A000A5
:101FB4008B317D238F31200020367F398038E60035
:101FC40066082200CB0058082000A300220057080E
:101FD4002000A200220056082000A100220055087B
:101FE4002000A0008B317D238F31200020367F39E3
:0C1FF4008038E60066082200CC000800DF
:020000040001F9
:04000E00E4FFFFFE0E
:00000001FF
