:020000040000FA
:1000000080313428080008007E1480318B1D0928B7
:100010000A2812280B1C0D280E2812288A310F22BC
:10002000803132280B1F1528162832282100931EF4
:100030001A281B2824282000931E1F282028242843
:100040008931A121803132282100931C28282928B8
:1000500032282000931C2D282E28322889313C215B
:10006000803132287E10090080313628F001F101FC
:10007000F201F301F401F501F6012000EF01A030D7
:100080008400003085004B308831512080312200BF
:10009000B001B101B201B301B4017E1020008B3177
:1000A000152B200035088039BA003A08BF003535D5
:1000B000BA003A08C500B41F5E285F2860284514BE
:1000C00045080319642865287428450A031D692812
:1000D0006A2872280030B5000030B4000030B30048
:1000E0000030B200B4177C280030B5000030B400F6
:1000F0000030B3000030B20039088039BA003A0845
:10010000BF063935BA003A08C400B81F88288928C4
:100110008A284414440803198E288F289E28440AEC
:10012000031D932894289C280030B9000030B800A3
:100130000030B7000030B600B817A6280030B9006C
:100140000030B8000030B7000030B6004408031992
:10015000AA28AB28B0284508031DAF28B028B92825
:100160000030B5000030B4000030B3000030B20001
:10017000A72A3208BA003A08A00038088A31972224
:10018000803120002108CB002008CA004A08BA00AC
:10019000BB01BC01BD013D08C3003C08C2003B08D7
:1001A000C1003A08C0004B08BA00BB01BC01BD0148
:1001B0003D08C9003C08C8003B08C7003A08C60013
:1001C0003308BA003A08A00037088A3197228031F4
:1001D00020002108CB002008CA004A08BA00BB0151
:1001E000BC01BD013A08C0073B08C13D3C08C23D07
:1001F0003D08C33D4B08BA00BB01BC01BD013A0834
:10020000C6073B08C73D3C08C83D3D08C93D34080A
:10021000BA003A08A00036088A31972280312000BF
:100220002108CB002008CA004A08BA00BB01BC0163
:10023000BD013A08C0073B08C13D3C08C23D3D082E
:10024000C33D4B08BA00BB01BC01BD013A08C6075B
:100250003B08C73D3C08C83D3D08C93D0830C03596
:10026000C10DC20DC30D890B2F293308BA003A08FE
:10027000A00036088A319722803120002108CB0067
:100280002008CA004A08C0074B08C13D0030C23DE3
:10029000C33D3208BA003A08A00037088A319722D5
:1002A000803120002108CB002008CA004A08C0077E
:1002B0004B08C13D0030C23DC33D0830C035C10DC3
:1002C000C20DC30D890B5E293208BA003A08A0009E
:1002D00036088A319722803120002108CB0020087F
:1002E000CA004A08C0074B08C13D0030C23DC33DAB
:1002F0003308BA003A08A00038088A3197228031C2
:1003000020002108CB002008CA004A08C6074B0875
:10031000C73D0030C83DC93D3408BA003A08A000C6
:1003200037088A319722803120002108CB0020082D
:10033000CA004A08C6074B08C73D0030C83DC93D42
:100340003408BA003A08A00038088A319722803170
:1003500020002108CB002008CA004A08BA004B0838
:10036000BB00BC01BD010830BA35BB0DBC0DBD0DD5
:10037000890BB4293A08C6073B08C73D3C08C83D6D
:100380003D08C93D4008BA004108BB004208BC0016
:100390004308BD001830BD36BC0CBB0CBA0C890B31
:1003A000CB293A08C6073B08C73D3C08C83D3D0875
:1003B000C93D0830C035C10DC20DC30D890BDA2906
:1003C00045084407BA00BB01BB0D3A08823ECA008B
:1003D000FF303B3DCB00032A0130C635C70DC80DA9
:1003E000C90D890BED29C31FF629F729F8294614F1
:1003F0000130C035C10DC20DC30D890BF929FF3085
:10040000CA07FF30CB3DC81F062A072AEC29C401C2
:10041000C31F0B2A0C2A282AFF304005BA00FF30E0
:100420004105BB00FF304205BC007F304305BD00E5
:100430003D083C043B043A0403191F2A202A232ABE
:10044000C401C40A282A461C262A272A282A202A28
:10045000440803192C2A2D2A552A0130C6070030DA
:10046000C73D0030C83D0030C93D491C382A392AF3
:10047000552A4608BA004708BB004808BC0049088E
:10048000BD000130BE00BD37BC0CBB0CBA0CBE0BAE
:10049000432A3D08C9003C08C8003B08C7003A0889
:1004A000C6000130CA070030CB3D4B08803ABA0085
:1004B00080303A02031D5E2AFF304A02031C612A83
:1004C000622A6C2A7F302000C9008030C8000030CA
:1004D000C7000030C6009B2A20004B08803ABA00B3
:1004E00080303A02031D762A01304A020318792A25
:1004F0007A2A852A00302000C9000030C800003068
:10050000C7000030C600BF019B2A20004A08BA007D
:100510003A08C500FF30C605FF30C7057F30C80563
:100520000030C905451C952A962A972AC8174536D2
:10053000BA003A08C9003F08BA003A08C904490895
:10054000B5004808B4004708B3004608B2000800E8
:1005500088314C208231003A0319AF2AB02AD12ABF
:1005600089314B2182312000A5002508A8002808E8
:10057000A5000230A536890BBA2A25080339A60042
:10058000A70126082100DA00200027082100DB004F
:10059000200028080239A500A6012508F400260835
:1005A000F50021005B08803A2000A5007508803A1C
:1005B0002502031DDE2A740821005A020318E12ACD
:1005C000E22A552B03302000AB000030AC002B0892
:1005D0002C04031DEC2AED2AF82A21003F08C10053
:1005E0003E08C0007408013EBE000030753DBF00EB
:1005F00020002C08803AA50080302502031D022B24
:1006000001302B02031C052B062B132B20002B354E
:10061000BE3E860087012B35C03E84008501403FE9
:10062000803F413F813FFF302000AB07FF30AC3DB2
:10063000AC1F1B2B1C2BE72A0330AB000030AC0097
:100640002B082C04031D252B262B312B21002108E0
:10065000A3002008A2005A08013EA00000305B3D24
:10066000A10020002C08803AA50080302502031D3F
:100670003B2B01302B02031C3E2B3F2B4C2B20002D
:100680002B35A03E860087012B35A23E84008501D4
:10069000403F803F413F813FFF302000AB07FF30AC
:1006A000AC3DAC1F542B552B202B21003F08CF0015
:1006B0003E08CE0001302000A9000030AA00200032
:1006C0002935BE3E86008701403FA500413FA60078
:1006D00021004F08803A2000A7002608803A270210
:1006E000031D752B250821004E020318782B792B4A
:1006F000832B20002935BE3E86008701403F210024
:10070000CE00413FCF0001302000A9070030AA3DB4
:100710002A08803AA50080302502031D912B053060
:100720002902031C942B952B5F2B21004E084F04AC
:10073000031D9B2B9C2BA02B0130CE000030CF0043
:100740007508803A2000A50021005B08803A20004F
:100750002502031DAE2B21005A0874020318B12B89
:10076000B22B252C03302000AD000030AE002D0848
:100770002E04031DBC2BBD2BC82B21003508B70050
:100780003408B6007408013EB4000030753DB50071
:1007900020002E08803AA50080302502031DD22BB0
:1007A00001302D02031CD52BD62BE32B20002D3539
:1007B000B43E860087012D35B63E84008501403F5A
:1007C000803F413F813FFF302000AD07FF30AE3D0D
:1007D000AE1FEB2BEC2BB72B0330AD000030AE007F
:1007E0002D082E04031DF52BF62B012C21002B08C0
:1007F000AD002A08AC005A08013EAA0000305B3D5B
:10080000AB0020002E08803AA50080302502031D91
:100810000B2C01302D02031C0E2C0F2C1C2C200045
:100820002D35AA3E860087012D35AC3E840085011A
:10083000403F803F413F813FFF302000AD07FF3008
:10084000AE3DAE1F242C252CF02B04302100CC0013
:100850000030CD002000A901AA0120002935B43EB6
:1008600086008701403FA500413FA6002608803A48
:10087000A70021004D08803A20002702031D442CC8
:1008800021004C08200025020318472C482C682C16
:1008900020002935B43E86008701403FA500413F36
:1008A000A6002608803AA70080302702031D5A2C94
:1008B00001302502031C5D2C5E2C682C200029359C
:1008C000B43E86008701403F2100CC00413FCD006F
:1008D00001302000A9070030AA3D2A08803AA5006F
:1008E00080302502031D762C05302902031C792C4B
:1008F0007A2C2D2C8E315E2682318D31B0258231BD
:100900000800200053088039D4005408DD00533516
:10091000D4005408E400D21F8E2C8F2C902C641429
:1009200064080319942C952CA52C640A031D992C9A
:100930009A2CA22C0030D3000030D2000030D1001D
:100940000030D000D217D301AD2C0030D3000030DE
:10095000D2000030D1000030D0004F088039D400E0
:100960005408DD064F35D4005408E500CE1FB92CDD
:10097000BA2CBB2C651465080319BF2CC02CD02CD5
:10098000650A031DC42CC52CCD2C0030CF000030CF
:10099000CE000030CD000030CC00CE17CF01D82CD7
:1009A0000030CF000030CE000030CD000030CC0051
:1009B0004F084E044D044C04031DDF2CE02CF92C91
:1009C0000030D3000030D2000030D1000030D00021
:1009D0008030D2047F30D3045D08D4005408D3049F
:1009E0005308CF005208CE005108CD005008CC006B
:1009F000342E6408031DFD2CFE2C072D0030CF0083
:100A00000030CE000030CD000030CC00342E640821
:100A1000D400D5015508D70065085402D600031C40
:100A2000D70356087F3EDE000030573DDF005308F5
:100A3000DC005208DB005108DA005008D900003011
:100A4000D3000030D2000030D1000030D0000030A0
:100A5000E3000030E2000030E1000030E000E5019A
:100A60006F2D65080319352D362D502D0130D935E0
:100A7000DA0DDB0DDC0D890B372D0130D035D10DB2
:100A8000D20DD30D890B3E2DE31F472D482D492D47
:100A900050140130E035E10DE20DE30D890B4A2DD4
:100AA0004F085C02031D5E2D4E085B02031D5E2D88
:100AB0004D085A02031D5E2D4C085902031C612D7E
:100AC000622D6B2D63174C08D9024D08DA3B4E0896
:100AD000DB3B4F08DC3B0130D4005408E5071A30FB
:100AE0006502031C742D752D312D5C085B045A04BE
:100AF000590403197C2D7D2D962D6014962D0130FF
:100B0000D035D10DD20DD30D890B802DE31F892D4A
:100B10008A2D8B2D50140130E035E10DE20DE30DEF
:100B2000890B8C2DFF30DE07FF30DF3DD21F992D62
:100B30009A2D7F2DE501E31F9E2D9F2DBB2DFF30AC
:100B40006005D400FF306105D500FF306205D60096
:100B50007F306305D7005708560455045404031921
:100B6000B22DB32DB62DE501E50ABB2D501CB92DD4
:100B7000BA2DBB2DB32D65080319BF2DC02DE82D4F
:100B80000130D0070030D13D0030D23D0030D33DA0
:100B9000531CCB2DCC2DE82D5008D4005108D50086
:100BA0005208D6005308D7000130D800D737D60CEA
:100BB000D50CD40CD80BD62D5708D3005608D2002C
:100BC0005508D1005408D0000130DE070030DF3D69
:100BD0005F08803AD40080305402031DF12DFF30AD
:100BE0005E02031CF42DF52D022EFF302000DE00E6
:100BF0000030DF000030D3000030D2000030D100E0
:100C00000030D00020005F08803AD40080305402C9
:100C1000031D0C2E01305E0203180F2E102E1C2E09
:100C20002000DE01DF010030D3000030D2000030B0
:100C3000D1000030D000DD0120005E08D40054084F
:100C4000E400641C242E252E272ED2172B2E7F3055
:100C5000D4005408D2056436D4005408D3005D088B
:100C6000D4005408D304F02C08003D302000B50017
:100C7000CC30B400CC30B300CD30B20000308A317B
:100C80003022863120002008CC002108CD00CE0182
:100C9000CF014F08A7004E08A6004D08A5004C083C
:100CA000A40000308D310325863120002708B900CB
:100CB0002608B8002508B7002408B6008031512066
:100CC0008631200035082100E6002000340821008C
:100CD000E500200033082100E40020003208210054
:100CE000E3003E302000B5009930B4009930B300E5
:100CF0009A30B20001308A3130228631200020083B
:100D0000CC002108CD00CE01CF014F08A7004E082E
:100D1000A6004D08A5004C08A40000308D31032525
:100D2000863120002708B9002608B8002508B7003A
:100D30002408B6008031512086312000350821007A
:100D4000E200200034082100E100200033082100E7
:100D5000E000200032082100DF0034302000D40001
:100D60000030D500FF30D8000330D9000030D60065
:100D70000130D700210051082000A10021005008B7
:100D80002000A0003C30A2000030A3008931EF21F8
:100D9000863120002108D1002008D0005008D83E1C
:100DA000D200FF30513DD300DA01DB01DC01DD016F
:100DB00020005408DA075508DB3D5908803ACC007A
:100DC0005B08803A4C02031DE72E5A0858020318AC
:100DD000EA2EEB2EF42E20005908A1005808A0009E
:100DE0008931D3218631FC2E20005B08A1005A08EE
:100DF000A0008931D321863101302000DC0700308A
:100E0000DD3D5D08803ACC0080304C02031D0A2F86
:100E100014305C02031C0D2F0E2FD82E2000DC0195
:100E2000DD01DC01DD01212F20005908A100580857
:100E3000A0008931D321863101302000DC07003049
:100E4000DD3D5D08803ACC005308803A4C02031D1A
:100E50002B2F52085C02031C2E2F2F2F142F200043
:100E6000DC01DD01DC01DD0120005408DA02550857
:100E7000DB3B5B08803ACC005708803A4C02031DEC
:100E8000432F56085A020318462F472F502F200091
:100E90005708A1005608A0008931D3218631582F68
:100EA00020005B08A1005A08A0008931D3218631B7
:100EB00001302000DC070030DD3D5D08803ACC00C9
:100EC00080304C02031D662F14305C02031C692F16
:100ED0006A2F342F8231A822863100302000A000F2
:100EE000A1008931D32186310800AB2F6F08DE00C5
:100EF00070085E02A00071090318890AA1008931F7
:100F0000B7218731200021082100D10020002008CE
:100F10002100D0007108803A2000DE0080305E029F
:100F2000031D942F6F0870020318972F982F9A2F84
:100F300022000C117108803A803C031DA22F70081A
:100F400020006F020318A52FA62FA82F22000C1532
:100F500086313526873120006F08DE00DF017108F9
:100F60005F06031DB52F70085E06031DB82FB92F4D
:100F7000762F22000C1520006F08DE00DF017108BB
:100F80005F06031DC52F70085E06031DC82FC92FFD
:100F9000E42F8E315E26873120006F08DE00700856
:100FA0005E02A00071090318890AA1008931B721E6
:100FB0008731200021082100D100200020082100D5
:100FC000D00086313526873120006F08DE00DF0132
:100FD00021004F0820005F06031DF22F21004E085C
:100FE00020005E06031DF52FF62FBB2F0800200002
:100FF00021082100EC00200020082100EB0008005F
:1010800008000800080008008130220097000800CE
:1010900016302100970008002000110E890C01393C
:1010A0000800640080010131890B522800342000BF
:1010B000EF01EF0A2100C801C901080070302100CA
:1010C00099009801220096010800D33021009E006B
:1010D0009B019C0101309D000800FF3020009B0017
:1010E0009A01911004309C00080020002108220081
:1010F000A900200020082200A800080020002108E4
:101100002200AB00200020082200AA0008002000D6
:1011100021082200AF00200020082200AE000800B5
:10112000200021082200AD00200020082200AC0091
:101130000800200021082200A7002000200822002B
:10114000A6000800200021082200A5002000200899
:101150002200A4000800200021082200A300200093
:1011600020082200A2000800200021082200A1007F
:10117000200020082200A00008000C302600930068
:1011800091019201CF3025009E050800F700200054
:10119000111ECB28CC28C728770823009A00080006
:1011A0000230F70077082000EF0001302100C8006E
:1011B0000030C90008000330F70077082000EF0076
:1011C00002302100C8000030C90008000430F700D8
:1011D00077082000EF0003302100C8000030C9006C
:1011E00008002200260827040319F728F828FD28FC
:1011F00027088A0026080A008831270016100800F0
:101200002200240825040319062907290C2925088A
:101210008A0024080A00893127009611080022005C
:10122000220823040319152916291B2923088A00DB
:1012300022080A008931270016120800220020081F
:1012400021040319242925292A2921088A00200894
:101250000A008931270096120800F7012000111EAC
:10126000322933293A2923009E1E372938293A2961
:10127000F701F70A770808002000931021006B0897
:101280006C040319442945294A296C088A006B0813
:101290000A00893108002000911E4F2950294B294E
:1012A000F60123009D1C5529562958291D121D168B
:1012B00019080800200099019701960111101708DC
:1012C0002100EE00200016082100ED003130200042
:1012D000980008002000181D6E296F297629181023
:1012E000780897007708960018147A2978089700EC
:1012F000770896000800053026009A0098019901A9
:1013000040302000A0000830A100883175208931CC
:1013100020009312210093160800DE30280096006A
:101320009501200093102100931403302000A000A9
:101330000030A1008731F727893107302800970056
:1013400008002000931226001808FB007B08FC0010
:101350001908FB007B08FD007D08FA007C08F900F5
:10136000220029088A0028080A0089310800200084
:101370002108803AA20080302202031DC1290130D9
:1013800020020318C429C529D22920002009A2005F
:101390002109A300A20A0319A30A2208A000230816
:1013A000A100D229080020002108A3002008A200E3
:1013B000A336A20CA336A20C22082600910020001E
:1013C00020080339A2000430A235890BE429260045
:1013D0001308CF39200022042600930008002000C3
:1013E000A401A501201CF529F629FA292208A40741
:1013F0002308A53D0130A235A30D890BFB2901303F
:10140000A136A00C890B002A20082104031D092AFB
:101410000A2AF2292508A1002408A00008002700B4
:10142000161C132A142A172A8831F1208A31270022
:10143000961D1B2A1C2A1F2A893100218A31270068
:10144000161E232A242A272A89310F218A312700B0
:10145000961E2B2A2C2A2F2A89311E218A31080018
:101460002000A3002308A200A20DA20D21001D0848
:10147000200022068339220621009D001D1403301E
:10148000890B402A000021009D149D18482A492AF2
:10149000452A1C082000A10021001B082000A000F4
:1014A00008008B3153238A3188315E208A3188319C
:1014B00048208A31883144208A3189317B218A3120
:1014C000883165208A3189318D218A318831BD206A
:1014D0008A3188316D208A3189315A218A318A31A5
:1014E00073228A310800083023009F0090309D004D
:1014F00024309E0067309B009C0100302000A0003B
:101500000030A100883187208A3100302000A000FF
:101510000030A100883190208A3100302000A000E6
:101520000030A10088317E208A31F60108002000B9
:10153000A800A401A5012008A200A3012208A6007A
:101540002308A700281CA52AA62AAA2A2608A40739
:101550002708A53D0130A635A70D890BAB2A03103E
:10156000A80C2808031DB52AB62AA22A2508A1001E
:101570002408A00008000030F700F80089316A2133
:101580008A317A082100E8007908E70058035904F5
:10159000031DCB2ACC2AD12A0130E9070030EA3DCD
:1015A000DF2A58085904031DD62AD72ADF2AEA1B46
:1015B000DA2ADB2ADF2AFF30E907FF30EA3D08009C
:1015C00001302100D6070030D73D0E3056065704B3
:1015D000031DEB2AEC2A142BF901FA01042B8931A3
:1015E0002D218A31003A0319F62AF72A042B7908AB
:1015F000303E86000130870001088831C6208A31DC
:101600000130F9070030FA3D7A08803AF80080305E
:101610007802031D0D2B05307902031C102B112BB2
:10162000EF2A2100D601D70108008A3151228B31DF
:101630008B170B17E0302000A0000A30A100873183
:10164000F7278B3157302000A0000830A1008831E7
:1016500099208B31D0302000A0000830A1008831C3
:10166000A2208B31DB302000A0000830A10088319F
:10167000AB208B31E6302000A0000830A10088317B
:10168000B4208B31BB302000A0000A30A10088318B
:1016900075208B318F312B278B318C310C248B3182
:1016A0004A2B8031342822008C018D0133302100F7
:1016B0008C00FF308D00C03023008D0003308C0083
:1016C00024008D018C012100951722009D019E01AF
:1016D0002700161096111612961215149515151648
:1016E0009516141094111412941241302000A00089
:1016F0000830A100883199208B3142302000A000B1
:101700000830A1008831A2208B3143302000A00096
:101710000830A1008831AB208B3102302000A000BE
:101720000030A1008831B4208B318B1508000310E4
:101730002000220D230DA4002408AA002A08031D5E
:10174000A22BA32BAC2B0030A3000030A200003052
:10175000A1000030A0000B2C2008A4002108A50047
:101760002208A6002308A7001F30A736A60CA50C48
:10177000A40C890BB52B2408A8002808A900A217DF
:10178000FF30A005FF30A105FF30A2050030A30502
:101790009630AA02AA1FCD2BCE2BE62B2A08803A20
:1017A000973E0318D42BD52BD62BA32B0130A33671
:1017B000A20CA10CA00C890BD72B0130A40024088B
:1017C000AA07031DE42BE52BD62BFB2B20302A0286
:1017D000031CEB2BEC2BF62BA32B0130A035A10D1A
:1017E000A20DA30D890BEE2B0130AA022A08031DBE
:1017F000FA2BFB2BED2B29080319FF2B002C0B2CAC
:10180000A009A109A209A309A00A0319A10A0319A1
:10181000A20A0319A30A08008231A8228C312100F0
:101820003E083F04031D152C162C2E2C40084104A5
:10183000031D1B2C1C2C2E2C42084304031D212CA1
:10184000222C2E2C44084504031D272C282C2E2C3A
:101850004608470403192D2C2E2C362C0130D400B9
:101860000030D500873175278C31802C2A082B0455
:10187000031D3B2C3C2C542C2C082D04031D412C07
:10188000422C542C2E082F04031D472C482C542C7A
:1018900030083104031D4D2C4E2C542C32083304D7
:1018A0000319532C542C5A2CD401D5018C3181248A
:1018B0008C31802C0230D4000030D50020006F081D
:1018C000FF3EA000FF3003180030A1008931B7218E
:1018D0008C31200021082100D100200020082100A7
:1018E000D000023020006F02031C772C782C7D2C56
:1018F0002100D801D90122000C11863135268C3106
:101900000800B72C6F08DE0072085E02A0007309A1
:101910000318890AA1008931B7218C3120002108E0
:101920002100D100200020082100D0007308803A57
:101930002000DE0080305E02031DA02C6F087202C2
:101940000318A32CA42CA62C22000C117308803A97
:10195000803C031DAE2C720820006F020318B12CCE
:10196000B22CB42C22000C15863135268C31200087
:101970006F08DE00DF0173085F06031DC12C7208CB
:101980005E06031DC42CC52C822C22000C112000E5
:101990006F08DE00DF0173085F06031DD12C72089B
:1019A0005E06031DD42CD52CF02C8D31B0258C3146
:1019B00020006F08DE0072085E02A00073090318A1
:1019C000890AA1008931B7218C312000210821002A
:1019D000D100200020082100D000863135268C312E
:1019E00020006F08DE00DF0121004D0820005F06A7
:1019F000031DFE2C21004C0820005E06031D012D56
:101A0000022DC72C08002000AC002C080319092D5A
:101A10000A2D1E2DA71F0D2D0E2D1E2D2409AE00E3
:101A20002509AF002609B0002709B100AE0A031945
:101A3000AF0A0319B00A0319B10A262D2708B1000D
:101A40002608B0002508AF002408AE0027082604A9
:101A500025042404031D2D2D2E2D372D0030A70025
:101A60000030A6000030A5000030A400AF2D963055
:101A7000A8002808AD00472D0130A8002808AD07B0
:101A80000130B136B00CAF0CAE0C890B412DFE30DD
:101A90003105031D4C2D4D2D3C2D612D0130A8002D
:101AA0002808AD070130AE070030AF3D0030B03D33
:101AB0000030B13D0130B136B00CAF0CAE0C890B2B
:101AC0005B2DFF303105031D662D672D4E2D712DC9
:101AD0000130AD020130AE35AF0DB00DB10D890B47
:101AE0006B2DB01B742D752D7B2D02302D0203182C
:101AF0007A2D7B2D682D2D187E2D7F2D872DFF3083
:101B0000AE05FF30AF057F30B005FF30B1050310E3
:101B1000AD0C2D08A800A901AA01AB011830A83509
:101B2000A90DAA0DAB0D890B8F2D2808AE0429082D
:101B3000AF042A08B0042B08B1042C080319A12D06
:101B4000A22DA72DA71FA52DA62DA72DB1173108B2
:101B5000A7003008A6002F08A5002E08A400080042
:101B600021002B08F3002A08F20001302000A30016
:101B70000030A40020002335AA3E86008701403FA4
:101B8000A000413FA1007308803AA2002108803ADA
:101B90002202031DCD2D200872020318D02DD12D55
:101BA000DA2D20002335AA3E86008701403FF2004F
:101BB000413FF30020002335B43E86008701403FBB
:101BC000A000413FA1007308803AA2002108803A9A
:101BD0002202031DED2D200872020318F02DF12DB5
:101BE000FA2D20002335B43E86008701403FF200E5
:101BF000413FF30001302000A3070030A43D24083A
:101C0000803AA00080302002031D082E05302302F8
:101C1000031C0B2E0C2EBA2D2000A301A4012000C2
:101C20002335AA3E86008701403FA000413FA10026
:101C300073082106031D1E2E72082006031D212E87
:101C4000222E292E2335AA3E860087010030C03F70
:101C5000C13F2335BE3E86008701403FA000413F83
:101C6000A10073082106031D372E72082006031DEC
:101C70003A2E3B2E422E2335B43E8600870100309B
:101C8000C03FC13F0130A3070030A43D2408803A83
:101C9000A00080302002031D4F2E05302302031CBC
:101CA000522E532E0F2E72087304031D582E592ED8
:101CB0005D2E0130F2000030F30008000430F00027
:101CC0000030F1002000A301A40120002335A03E34
:101CD00086008701403FA000413FA1002108803AD3
:101CE000A2007108803A2202031D782E700820029B
:101CF00003187B2E7C2E9B2E20002335A03E8600D1
:101D00008701403FA000413FA1002108803AA20086
:101D100080302202031D8E2E01302002031C912EE2
:101D2000922E9B2E20002335A03E86008701403F47
:101D3000F000413FF10020002335BE3E86008701C0
:101D4000403FA000413FA1002108803AA200710855
:101D5000803A2202031DAE2E700820020318B12E15
:101D6000B22ED12E20002335BE3E86008701403F93
:101D7000A000413FA1002108803AA2008030220249
:101D8000031DC42E01302002031CC72EC82ED12EE5
:101D900020002335BE3E86008701403FF000413FD2
:101DA000F10001302000A3070030A43D2408803A50
:101DB000A00080302002031DDF2E05302302031C0B
:101DC000E22EE32E652E2000A301A401200023357E
:101DD000A03E86008701403FA000413FA10071085E
:101DE0002106031DF52E70082006031DF82EF92E7E
:101DF000002F2335A03E860087010030C03FC13F41
:101E00002335BE3E86008701403FA000413FA10030
:101E100071082106031D0E2F70082006031D112FC7
:101E2000122F192F2335BE3E860087010030C03F98
:101E3000C13F0130A3070030A43D2408803AA00030
:101E400080302002031D262F05302302031C292F7A
:101E50002A2FE62E080035302000B5000630B400E9
:101E60003730B300BD30B200210067082000A40065
:101E7000210068082000A500A601A70100308D31CF
:101E800003258F3120002708B9002608B80025084F
:101E9000B7002408B600803151208F31200035086A
:101EA000CF003408CE003308CD003208CC004030DB
:101EB000D3007030D2000030D1000030D000843127
:101EC00081248F3120004F08EA004E08E9004D08B8
:101ED000E8004C08E7003F30B500C030B4000030E7
:101EE000B3000030B200210069082000A4002100E6
:101EF0006A082000A500890D893B8909A600A70072
:101F000001308D3103258F3120002708B9002608C4
:101F1000B8002508B7002408B600803151208F3161
:101F200020003508EE003408ED003308EC003208DC
:101F3000EB002100480802392000E6006608220074
:101F4000B00020006E08A3006D08A2006C08A1007C
:101F50006B08A0008B3197238F31200020367F390A
:101F60008038E60066082200B10020006A08A3005D
:101F70006908A2006808A1006708A0008B319723B8
:101F80008F31200020367F398038E6006608220035
:101F9000B200210066082000A3002100650820008F
:101FA000A200210064082000A10021006308200095
:101FB000A0008B3197238F31200020367F39803865
:101FC000E60066082200B300210062082000A3009A
:101FD000210061082000A200210060082000A1006B
:101FE00021005F082000A0008B3197238F31200053
:101FF00020367F398038E60066082200B4000800E9
:020000040001F9
:04000E00E4FFFFFE0E
:00000001FF
