:020000040000FA
:1000000080313428080008007E1480318B1D0928B7
:100010000A2812280B1C0D280E2812288F31782749
:10002000803132280B1F1528162832282100931EF4
:100030001A281B2824282000931E1F282028242843
:100040008731E627803132282100931C282829286F
:1000500032282000931C2D282E2832288E31D926B4
:10006000803132287E10090080313628F701F801EE
:10007000F901FA012000EF01A03084000030850072
:1000800017308E315B2680317E10200087314E2F55
:10009000200035088039BA003A08BF003535BA006B
:1000A0003A08C500B41F5528562857284514450856
:1000B00003195B285C286B28450A031D602861280A
:1000C00069280030B5000030B4000030B3000030C3
:1000D000B200B41773280030B5000030B40000300F
:1000E000B3000030B20039088039BA003A08BF06C0
:1000F0003935BA003A08C400B81F7F288028812803
:10010000441444080319852886289528440A031DA9
:100110008A288B2893280030B9000030B8000030BE
:10012000B7000030B600B8179D280030B900003085
:10013000B8000030B7000030B60044080319A12809
:10014000A228A7284508031DA628A728B028003004
:10015000B5000030B4000030B3000030B2009E2A79
:100160003208BA003A08A00038088F31DC27803105
:1001700020002108CB002008CA004A08BA00BB01B1
:10018000BC01BD013D08C3003C08C2003B08C100E2
:100190003A08C0004B08BA00BB01BC01BD013D08D4
:1001A000C9003C08C8003B08C7003A08C60033082D
:1001B000BA003A08A00037088F31DC2780312000D0
:1001C0002108CB002008CA004A08BA00BB01BC01C4
:1001D000BD013A08C0073B08C13D3C08C23D3D088F
:1001E000C33D4B08BA00BB01BC01BD013A08C607BC
:1001F0003B08C73D3C08C83D3D08C93D3408BA002E
:100200003A08A00036088F31DC2780312000210811
:10021000CB002008CA004A08BA00BB01BC01BD01DE
:100220003A08C0073B08C13D3C08C23D3D08C33DFC
:100230004B08BA00BB01BC01BD013A08C6073B0828
:10024000C73D3C08C83D3D08C93D0830C035C10D1B
:10025000C20DC30D890B26293308BA003A08A00045
:1002600036088F31DC27803120002108CB002008A0
:10027000CA004A08C0074B08C13D0030C23DC33D1B
:100280003208BA003A08A00037088F31DC278031E5
:1002900020002108CB002008CA004A08C0074B08EC
:1002A000C13D0030C23DC33D0830C035C10DC20D57
:1002B000C30D890B55293208BA003A08A000360848
:1002C0008F31DC27803120002108CB002008CA00B4
:1002D0004A08C0074B08C13D0030C23DC33D33084A
:1002E000BA003A08A00038088F31DC27803120009E
:1002F0002108CB002008CA004A08C6074B08C73DA2
:100300000030C83DC93D3408BA003A08A00037089B
:100310008F31DC27803120002108CB002008CA0063
:100320004A08C6074B08C73D0030C83DC93D3408E0
:10033000BA003A08A00038088F31DC27803120004D
:100340002108CB002008CA004A08BA004B08BB00AD
:10035000BC01BD010830BA35BB0DBC0DBD0D890B0C
:10036000AB293A08C6073B08C73D3C08C83D3D08D5
:10037000C93D4008BA004108BB004208BC00430820
:10038000BD001830BD36BC0CBB0CBA0C890BC229A1
:100390003A08C6073B08C73D3C08C83D3D08C93D73
:1003A0000830C035C10DC20DC30D890BD1294508D8
:1003B0004407BA00BB01BB0D3A08823ECA00FF30B9
:1003C0003B3DCB00FA290130C635C70DC80DC90D1C
:1003D000890BE429C31FED29EE29EF2946140130CA
:1003E000C035C10DC20DC30D890BF029FF30CA07FE
:1003F000FF30CB3DC81FFD29FE29E329C401C31FDF
:10040000022A032A1F2AFF304005BA00FF304105A7
:10041000BB00FF304205BC007F304305BD003D08F6
:100420003C043B043A040319162A172A1A2AC40169
:10043000C40A1F2A461C1D2A1E2A1F2A172A4408DE
:100440000319232A242A4C2A0130C6070030C73D4D
:100450000030C83D0030C93D491C2F2A302A4C2AA3
:100460004608BA004708BB004808BC004908BD0060
:100470000130BE00BD37BC0CBB0CBA0CBE0B3A2A17
:100480003D08C9003C08C8003B08C7003A08C60040
:100490000130CA070030CB3D4B08803ABA008030AB
:1004A0003A02031D552AFF304A02031C582A592AD2
:1004B000632A7F302000C9008030C8000030C700A8
:1004C0000030C600922A20004B08803ABA008030E3
:1004D0003A02031D6D2A01304A020318702A712A5C
:1004E0007C2A00302000C9000030C8000030C7005E
:1004F0000030C600BF01922A20004A08BA003A081C
:10050000C500FF30C605FF30C7057F30C805003085
:10051000C905451C8C2A8D2A8E2AC8174536BA0073
:100520003A08C9003F08BA003A08C9044908B500AA
:100530004808B4004708B3004608B200080020008D
:1005400053088039D4005408DD005335D4005408D2
:10055000E400D21FAC2AAD2AAE2A64146408031941
:10056000B22AB32AC32A640A031DB72AB82AC02AAA
:100570000030D3000030D2000030D1000030D00075
:10058000D217D301CB2A0030D3000030D200003084
:10059000D1000030D0004F088039D4005408DD0667
:1005A0004F35D4005408E500CE1FD72AD82AD92ABF
:1005B000651465080319DD2ADE2AEE2A650A031D83
:1005C000E22AE32AEB2A0030CF000030CE000030D0
:1005D000CD000030CC00CE17CF01F62A0030CF007E
:1005E0000030CE000030CD000030CC004F084E046B
:1005F0004D044C04031DFD2AFE2A172B0030D300A6
:100600000030D2000030D1000030D0008030D20461
:100610007F30D3045D08D4005408D3045308CF00BE
:100620005208CE005108CD005008CC00522C64086E
:10063000031D1B2B1C2B252B0030CF000030CE00C0
:100640000030CD000030CC00522C6408D400D5011D
:100650005508D70065085402D600031CD703560876
:100660007F3EDE000030573DDF005308DC005208BB
:10067000DB005108DA005008D9000030D300003008
:10068000D2000030D1000030D0000030E300003054
:10069000E2000030E1000030E000E5018D2B65084C
:1006A0000319532B542B6E2B0130D935DA0DDB0D8A
:1006B000DC0D890B552B0130D035D10DD20DD30D6A
:1006C000890B5C2BE31F652B662B672B50140130C5
:1006D000E035E10DE20DE30D890B682B4F085C025C
:1006E000031D7C2B4E085B02031D7C2B4D085A0218
:1006F000031D7C2B4C085902031C7F2B802B892B5C
:1007000063174C08D9024D08DA3B4E08DB3B4F0813
:10071000DC3B0130D4005408E5071A306502031CA5
:10072000922B932B4F2B5C085B045A04590403193A
:100730009A2B9B2BB42B6014B42B0130D035D10DE8
:10074000D20DD30D890B9E2BE31FA72BA82BA92B12
:1007500050140130E035E10DE20DE30D890BAA2BB9
:10076000FF30DE07FF30DF3DD21FB72BB82B9D2BAC
:10077000E501E31FBC2BBD2BD92BFF306005D40056
:10078000FF306105D500FF306205D6007F3063057C
:10079000D70057085604550454040319D02BD12B05
:1007A000D42BE501E50AD92B501CD72BD82BD92BFC
:1007B000D12B65080319DD2BDE2B062C0130D00769
:1007C0000030D13D0030D23D0030D33D531CE92BE9
:1007D000EA2B062C5008D4005108D5005208D60048
:1007E0005308D7000130D800D737D60CD50CD40C1D
:1007F000D80BF42B5708D3005608D2005508D10067
:100800005408D0000130DE070030DF3D5F08803A39
:10081000D40080305402031D0F2CFF305E02031CF5
:10082000122C132C202CFF302000DE000030DF00C3
:100830000030D3000030D2000030D1000030D000B2
:1008400020005F08803AD40080305402031D2A2C17
:1008500001305E0203182D2C2E2C3A2C2000DE01D4
:10086000DF010030D3000030D2000030D100003072
:10087000D000DD0120005E08D4005408E400641CB0
:10088000422C432C452CD217492C7F30D4005408DD
:10089000D2056436D4005408D3005D08D40054084F
:1008A000D3040E2B080035302000B5000630B4000C
:1008B0003730B300BD30B200210033082000A4005F
:1008C000210034082000A500A601A70100308531D1
:1008D0006F25843120002708B9002608B8002508B4
:1008E000B7002408B6008031482084312000350844
:1008F000CF003408CE003308CD003208CC004030A1
:10090000D3007030D2000030D1000030D0008231EE
:100910009F22843120004F082100C60020004E088D
:100920002100C50020004D082100C40020004C0813
:100930002100C3003F302000B500C030B4000030BB
:10094000B3000030B200210035082000A4002100CF
:1009500036082000A500890D893B8909A600A7005B
:10096000013085316F25843120002708B900260821
:10097000B8002508B7002408B6008031482084312B
:10098000200035082100CA00200034082100C900D9
:10099000200033082100C800200032082100C700D1
:1009A0008E3138268431003A0319D72CD82CFE2CEE
:1009B0008F31322784312000E60066082100CB0009
:1009C0004B082000E6000230E636890BE42C66086E
:1009D0000339E700E80167082100A5002000680846
:1009E0002100A6004B0802392000E600E701660856
:1009F0002100A700200067082100A8002100290885
:100A000002392000E60066082100A0004A08200004
:100A1000A300210049082000A2002100480820006E
:100A2000A100210047082000A000863195268431CE
:100A3000200020367F398038E60066082100A100BA
:100A400046082000A300210045082000A200210044
:100A500044082000A100210043082000A0008631A6
:100A600095268431200020367F398038E6006608DC
:100A70002100A20032082000A3002100310820003C
:100A8000A200210030082000A10021002F08200032
:100A9000A000863195268431200020367F398038A9
:100AA000E60066082100A3002E082000A300210014
:100AB0002D082000A20021002C082000A100210008
:100AC0002B082000A0008631952684312000203696
:100AD0007F398038E60066082100A4000800200065
:100AE000AC002C080319752D762D8A2DA71F792DA2
:100AF0007A2D8A2D2409AE002509AF002609B00001
:100B00002709B100AE0A0319AF0A0319B00A031985
:100B1000B10A922D2708B1002608B0002508AF00C1
:100B20002408AE002708260425042404031D992D5B
:100B30009A2DA32D0030A7000030A6000030A5009C
:100B40000030A4001B2E9630A8002808AD00B32D5D
:100B50000130A8002808AD070130B136B00CAF0C49
:100B6000AE0C890BAD2DFE303105031DB82DB92D0E
:100B7000A82DCD2D0130A8002808AD070130AE0703
:100B80000030AF3D0030B03D0030B13D0130B136F6
:100B9000B00CAF0CAE0C890BC72DFF303105031D17
:100BA000D22DD32DBA2DDD2D0130AD020130AE3561
:100BB000AF0DB00DB10D890BD72DB01BE02DE12D80
:100BC000E72D02302D020318E62DE72DD42D2D1828
:100BD000EA2DEB2DF32DFF30AE05FF30AF057F3052
:100BE000B005FF30B1050310AD0C2D08A800A90118
:100BF000AA01AB011830A835A90DAA0DAB0D890BC0
:100C0000FB2D2808AE042908AF042A08B0042B08DD
:100C1000B1042C0803190D2E0E2E132EA71F112E12
:100C2000122E132EB1173108A7003008A6002F0886
:100C3000A5002E08A40008003D302000B500CC30EF
:100C4000B400CC30B300CD30B20000308F319927E2
:100C5000863120002008CC002108CD00CE01CF0134
:100C60004F08A7004E08A6004D08A5004C08A40098
:100C7000003085316F25863120002708B90026080D
:100C8000B8002508B7002408B60080314820863116
:100C9000200035082100B200200034082100B100F6
:100CA000200033082100B000200032082100AF00EE
:100CB0003E302000B5009930B4009930B3009A302E
:100CC000B20001308F319927863120002008CC00F6
:100CD0002108CD00CE01CF014F08A7004E08A60085
:100CE0004D08A5004C08A400003085316F258631E1
:100CF00020002708B9002608B8002508B7002408F6
:100D0000B600803148208631200035082100AE0031
:100D1000200034082100AD00200033082100AC0081
:100D2000200032082100AB00080003102000220D33
:100D3000230DA4002408AA002A08031DA02EA12E1A
:100D4000AA2E0030A3000030A2000030A100003025
:100D5000A000092F2008A4002108A5002208A60051
:100D60002308A7001F30A736A60CA50CA40C890BDE
:100D7000B32E2408A8002808A900A217FF30A00558
:100D8000FF30A105FF30A2050030A3059630AA026E
:100D9000AA1FCB2ECC2EE42E2A08803A973E0318A9
:100DA000D22ED32ED42EA12E0130A336A20CA10C0C
:100DB000A00C890BD52E0130A4002408AA07031D1E
:100DC000E22EE32ED42EF92E20302A02031CE92E27
:100DD000EA2EF42EA12E0130A035A10DA20DA30DF7
:100DE000890BEC2E0130AA022A08031DF82EF92ED9
:100DF000EB2E29080319FD2EFE2E092FA009A109AB
:100E0000A209A309A00A0319A10A0319A20A031936
:100E1000A30A080022008C018D01333021008C00D0
:100E2000FF308D00C03023008D0003308C00240083
:100E30008D018C012100951722009D019E01270044
:100E4000161096111612961215149515151695165C
:100E5000141094111412941229302000A0000E30A6
:100E6000A1008E31492687312A302000A0000E30A3
:100E7000A1008E314F2687312B302000A0000E308C
:100E8000A1008E319C2687312C302000A0000E302E
:100E9000A1008E31A52687318B1508008F31BA2726
:100EA00087318B170B178F302000A0000730A1006F
:100EB0008E31552687312D302000A0000E30A10044
:100EC0008E314926873130302000A0000E30A1003D
:100ED0008E314F2687313D302000A0000E30A1001A
:100EE0008E319C26873143302000A0000E30A100B7
:100EF0008E31A5268731C1302000A0000E30A10020
:100F00008E317826873184315324873186311C26EF
:100F10008731803103208731832F8031342801309D
:100F2000F7070030F83D0E3077067804031D992F3F
:100F30009A2FC02FF201F301B12F8F312327873170
:100F4000003A0319A42FA52FB12F7208A03E8600E6
:100F5000870101088E31B72687310130F207003052
:100F6000F33D7308803AF10080307102031DBA2FFF
:100F700005307202031CBD2FBE2F9D2FF701F80113
:100F80000800083023009F0090309D0024309E0010
:100F900067309B009C0100302000A0000030A100C1
:100FA0008E318A26873100302000A0000030A10059
:100FB0008E319326873100302000A0000030A10040
:100FC0008E31812687312000EF0108002000931226
:100FD00026001808F4007408F5001908F4007408D5
:100FE000F6007608F3007508F20021003C088A003C
:100FF0003B080A00873108001630210097000800DE
:101C5000080008000800080008002100A901080089
:101C60002100A901A90A080081302200970008007C
:101C70002000110E890C013908000230F0007008B4
:101C80002100A90008000330F00070082100A9001D
:101C9000080020002108EC002008EB0008002000CC
:101CA0002108EA002008E900080020002108EE00D1
:101CB0002008ED000800640080010131890B5C2ED2
:101CC000003470302100990098012200960108002C
:101CD000D33021009E009B019C0101309D00080033
:101CE000FF3020009B009A01911004309C000800F6
:101CF000200021082100BC00200020082100BB009A
:101D00000800200021082100BE002000200821003A
:101D1000BD000800200021082100C200200020088A
:101D20002100C1000800200021082100C00020007F
:101D300020082100BF000800200021082100BA006F
:101D4000200020082100B9000800200021082100FF
:101D5000B800200020082100B70008000C30260041
:101D6000930091019201CF3025009E050800F000FC
:101D70002000111EBC2EBD2EB82E700823009A0024
:101D800008000030F000F1008F3141278E317308D8
:101D90002100B4007208B3000800200099019701E7
:101DA000960111101708FC001608FB00013098007E
:101DB0000800200093106D086E040319E02EE12E38
:101DC000E62E6E088A006D080A008E310800200099
:101DD0006B086C040319ED2EEE2EF32E6C088A00AE
:101DE0006B080A008E3127001610080020006908D1
:101DF0006A040319FC2EFD2E022F6A088A00690866
:101E00000A008F31270096110800210039083A0492
:101E100003190B2F0C2F112F3A088A0039080A00DA
:101E20008F312700161208002100370838040319E3
:101E30001A2F1B2F202F38088A0037080A008F31ED
:101E4000270096120800F0012000111E282F292FCC
:101E5000302F23009E1E2D2F2E2F302FF001F00A41
:101E6000700808002000911E362F372F322FEF0107
:101E700023009D1C3C2F3D2F3F2F1D121D161908BE
:101E800008002000181D452F462F4D2F18107108EF
:101E90009700700896001814512F71089700700869
:101EA00096000800053026009A0098019901283014
:101EB0002000A0000E30A1008E3178268F31200046
:101EC0009312210093160800DE3028009600950139
:101ED000200093102100931402302000A000003055
:101EE000A1008E3155268F31073028009700080059
:101EF0002700161C7C2F7D2F802F8E31E7268F31F7
:101F00002700961D842F852F882F8E31F6268F313E
:101F10002700161E8C2F8D2F902F8F3105278F3184
:101F20002700961E942F952F982F8F3114278F31CD
:101F300008002000A3002308A200A20DA20D21008A
:101F40001D08200022068339220621009D001D1451
:101F50000330890BA92F000021009D149D18B12F7B
:101F6000B22FAE2F1C082000A10021001B0820006A
:101F7000A000080087310A278F318E3161268F310A
:101F80008731FC278F318E3134268F318F315227A4
:101F90008F318E3168268F318F3164278F318E31AA
:101FA000AE268F318E3170268F318E31CD268F3116
:101FB0008731C1278F3108002000A800A401A501A6
:101FC0002008A200A3012208A6002308A700281CBD
:101FD000EA2FEB2FEF2F2608A4072708A53D013095
:101FE000A635A70D890BF02F0310A80C2808031D98
:101FF000FA2FFB2FE72F2508A1002408A0000800D6
:020000040001F9
:04000E00E43FFF3E8E
:00000001FF
