:020000040000FA
:1000000080314228080008007E1480318B1D0928A9
:100010000A2812280B1C0D280E2812288E31612662
:10002000803140280B1F1528162840282100931DD9
:100030001A281B2824282000931D1F282028242844
:100040008D316525803140282100931E28282928DC
:1000500032282000931E2D282E2832288D31F3259A
:10006000803140282100931C362837284028200062
:10007000931C3B283C2840288D3156258031402850
:100080007E10090080314428F701F801F901FA01D6
:10009000FB01FC01683084000030850007308C31A2
:1000A00073248031B63084000030850015308C31E7
:1000B000732480317E1020008731912F2000350875
:1000C0008039BA003A08BF003535BA003A08C50091
:1000D000B41F6B286C286D28451445080319712836
:1000E00072288128450A031D762877287F2800304A
:1000F000B5000030B4000030B3000030B200B417D7
:1001000089280030B5000030B4000030B300003062
:10011000B20039088039BA003A08BF063935BA004A
:100120003A08C400B81F9528962897284414440814
:1001300003199B289C28AB28440A031DA028A1284A
:10014000A9280030B9000030B8000030B7000030F6
:10015000B600B817B3280030B9000030B80000303E
:10016000B7000030B60044080319B728B828BD28E6
:100170004508031DBC28BD28C6280030B500003046
:10018000B4000030B3000030B200B42A3208BA0024
:100190003A08A00038088E31A326803120002108BB
:1001A000CB002008CA004A08BA00BB01BC01BD014F
:1001B0003D08C3003C08C2003B08C1003A08C0002B
:1001C0004B08BA00BB01BC01BD013D08C9003C0899
:1001D000C8003B08C7003A08C6003308BA003A080E
:1001E000A00037088E31A326803120002108CB00E3
:1001F0002008CA004A08BA00BB01BC01BD013A0888
:10020000C0073B08C13D3C08C23D3D08C33D4B080B
:10021000BA00BB01BC01BD013A08C6073B08C73D97
:100220003C08C83D3D08C93D3408BA003A08A00062
:1002300036088E31A326803120002108CB0020080B
:10024000CA004A08BA00BB01BC01BD013A08C00798
:100250003B08C13D3C08C23D3D08C33D4B08BA00C8
:10026000BB01BC01BD013A08C6073B08C73D3C08BD
:10027000C83D3D08C93D0830C035C10DC20DC30D94
:10028000890B3C293308BA003A08A00036088E31A1
:10029000A326803120002108CB002008CA004A088C
:1002A000C0074B08C13D0030C23DC33D3208BA0013
:1002B0003A08A00037088E31A3268031200021089B
:1002C000CB002008CA004A08C0074B08C13D0030D7
:1002D000C23DC33D0830C035C10DC20DC30D890BF1
:1002E0006B293208BA003A08A00036088E31A326DE
:1002F000803120002108CB002008CA004A08C0072E
:100300004B08C13D0030C23DC33D3308BA003A0836
:10031000A00038088E31A326803120002108CB00B0
:100320002008CA004A08C6074B08C73D0030C83D30
:10033000C93D3408BA003A08A00037088E31A32618
:10034000803120002108CB002008CA004A08C607D7
:100350004B08C73D0030C83DC93D3408BA003A08D3
:10036000A00038088E31A326803120002108CB0060
:100370002008CA004A08BA004B08BB00BC01BD01F6
:100380000830BA35BB0DBC0DBD0D890BC1293A082B
:10039000C6073B08C73D3C08C83D3D08C93D40086D
:1003A000BA004108BB004208BC004308BD00183039
:1003B000BD36BC0CBB0CBA0C890BD8293A08C60751
:1003C0003B08C73D3C08C83D3D08C93D0830C03525
:1003D000C10DC20DC30D890BE72945084407BA00BA
:1003E000BB01BB0D3A08823ECA00FF303B3DCB004B
:1003F000102A0130C635C70DC80DC90D890BFA2961
:10040000C31F032A042A052A46140130C035C10D32
:10041000C20DC30D890B062AFF30CA07FF30CB3D42
:10042000C81F132A142AF929C401C31F182A192A1C
:10043000352AFF304005BA00FF304105BB00FF30D0
:100440004205BC007F304305BD003D083C043B0431
:100450003A0403192C2A2D2A302AC401C40A352A49
:10046000461C332A342A352A2D2A44080319392AEE
:100470003A2A622A0130C6070030C73D0030C83D25
:100480000030C93D491C452A462A622A4608BA005E
:100490004708BB004808BC004908BD000130BE0049
:1004A000BD37BC0CBB0CBA0CBE0B502A3D08C900B2
:1004B0003C08C8003B08C7003A08C6000130CA071C
:1004C0000030CB3D4B08803ABA0080303A02031D21
:1004D0006B2AFF304A02031C6E2A6F2A792A7F306A
:1004E0002000C9008030C8000030C7000030C600BE
:1004F000A82A20004B08803ABA0080303A02031D37
:10050000832A01304A020318862A872A922A003059
:100510002000C9000030C8000030C7000030C6000D
:10052000BF01A82A20004A08BA003A08C500FF30D7
:10053000C605FF30C7057F30C8050030C905451C1A
:10054000A22AA32AA42AC8174536BA003A08C90025
:100550003F08BA003A08C9044908B5004808B40081
:100560004708B3004608B20008002000530880394D
:10057000D4005408DD005335D4005408E400D21FE1
:10058000C22AC32AC42A641464080319C82AC92ABF
:10059000D92A640A031DCD2ACE2AD62A0030D300D8
:1005A0000030D2000030D1000030D000D217D3018B
:1005B000E12A0030D3000030D2000030D1000030FA
:1005C000D0004F088039D4005408DD064F35D400E0
:1005D0005408E500CE1FED2AEE2AEF2A65146508BF
:1005E0000319F32AF42A042B650A031DF82AF92AB1
:1005F000012B0030CF000030CE000030CD000030A5
:10060000CC00CE17CF010C2B0030CF000030CE0035
:100610000030CD000030CC004F084E044D044C0497
:10062000031D132B142B2D2B0030D3000030D200D0
:100630000030D1000030D0008030D2047F30D304AD
:100640005D08D4005408D3045308CF005208CE00EC
:100650005108CD005008CC00682C6408031D312BD4
:10066000322B3B2B0030CF000030CE000030CD00CD
:100670000030CC00682C6408D400D5015508D700A0
:1006800065085402D600031CD70356087F3EDE00DF
:100690000030573DDF005308DC005208DB005108F2
:1006A000DA005008D9000030D3000030D20000300A
:1006B000D1000030D0000030E3000030E200003014
:1006C000E1000030E000E501A32B65080319692B68
:1006D0006A2B842B0130D935DA0DDB0DDC0D890B4B
:1006E0006B2B0130D035D10DD20DD30D890B722B70
:1006F000E31F7B2B7C2B7D2B50140130E035E10D6B
:10070000E20DE30D890B7E2B4F085C02031D922B3B
:100710004E085B02031D922B4D085A02031D922BBB
:100720004C085902031C952B962B9F2B63174C08E2
:10073000D9024D08DA3B4E08DB3B4F08DC3B013069
:10074000D4005408E5071A306502031CA82BA92B16
:10075000652B5C085B045A0459040319B02BB12BB8
:10076000CA2B6014CA2B0130D035D10DD20DD30D58
:10077000890BB42BE31FBD2BBE2BBF2B50140130B4
:10078000E035E10DE20DE30D890BC02BFF30DE07F4
:10079000FF30DF3DD21FCD2BCE2BB32BE501E31F66
:1007A000D22BD32BEF2BFF306005D400FF30610537
:1007B000D500FF306205D6007F306305D7005708AB
:1007C0005604550454040319E62BE72BEA2BE501E4
:1007D000E50AEF2B501CED2BEE2BEF2BE72B6508DA
:1007E0000319F32BF42B1C2C0130D0070030D13D22
:1007F0000030D23D0030D33D531CFF2B002C1C2C6D
:100800005008D4005108D5005208D6005308D7002C
:100810000130D800D737D60CD50CD40CD80B0A2C05
:100820005708D3005608D2005508D1005408D0000C
:100830000130DE070030DF3D5F08803AD4008030B1
:100840005402031D252CFF305E02031C282C292C8A
:10085000362CFF302000DE000030DF000030D300F7
:100860000030D2000030D1000030D00020005F08FE
:10087000803AD40080305402031D402C01305E02C7
:100880000318432C442C502C2000DE01DF010030E3
:10089000D3000030D2000030D1000030D000DD01A4
:1008A00020005E08D4005408E400641C582C592C25
:1008B0005B2CD2175F2C7F30D4005408D2056436ED
:1008C000D4005408D3005D08D4005408D304242B6A
:1008D000080035302000B5000630B4003730B300D2
:1008E000BD30B200210049082000A40021004A08C0
:1008F0002000A500A601A7010030863154268431CE
:1009000020002708B9002608B8002508B7002408E9
:10091000B60080315E20843120003508CF003408D5
:10092000CE003308CD003208CC004030D300703008
:10093000D2000030D1000030D0008231B5228431A5
:1009400020004F082100CE0020004E082100CD00DD
:1009500020004D082100CC0020004C082100CB00D5
:100960003F302000B500C030B4000030B30000308C
:10097000B2007B08A4007C08A500890D893B890989
:10098000A600A700013086315426843120002708B4
:10099000B9002608B8002508B7002408B600803141
:1009A0005E208431200035082100D2002000340868
:1009B0002100D100200033082100D000200032089F
:1009C0002100CF008C315C248431003A0319E92CDA
:1009D000EA2CFB2C8D31742584312000E60066085A
:1009E0002100D300530802392000E600E701660821
:1009F000EC006708ED0021003F0802392000E60006
:100A000066082100B60052082000A300210051080A
:100A10002000A200210050082000A10021004F0862
:100A20002000A0008F318B278431200020367F39B1
:100A30008038E60066082100B7004E082000A300B9
:100A400021004D082000A20021004C082000A10038
:100A500021004B082000A0008F318B27843120001B
:100A600020367F398038E60066082100B800480843
:100A70002000A300210047082000A2002100460812
:100A80002000A100210045082000A0008F318B2705
:100A90008431200020367F398038E6006608210046
:100AA000B90044082000A300210043082000A20050
:100AB000210042082000A100210041082000A000E0
:100AC0008F318B278431200020367F398038E60033
:100AD00066082100BA0008001A302000AD0000307E
:100AE000AE006430B1000230B2009930AF00003087
:100AF000B0006D08A1006C08A0003C30A2000030DE
:100B0000A3008E314126853120002108AA0020084B
:100B1000A9002908D83EAB00FF302A3DAC00B30144
:100B2000B401B501B60120002D08B3072E08B43D6D
:100B3000FE30A700FF30A8002808A1002708A00069
:100B40008E310926853120003208803AA60034080B
:100B5000803A2602031DAE2D330831020318B12D51
:100B6000B22DBB2D20003208A1003108A0008E312B
:100B700025268531C32D20003408A1003308A000AC
:100B80008E312526853101302000B5070030B63D75
:100B90003608803AA60080302602031DD12D14307D
:100BA0003502031CD42DD52D932D2000B501B6019F
:100BB000B501B601E82D20003208A1003108A000DF
:100BC0008E312526853101302000B5070030B63D35
:100BD0003608803AA6002C08803A2602031DF22D22
:100BE0002B083502031CF52DF62DDB2D2000B50159
:100BF000B601B501B60120002D08B3022E08B43BA2
:100C0000FE30A700FF30A8002808A1002708A00098
:100C10008E310926853120003408803AA60030083C
:100C2000803A2602031D162E2F0833020318192EB0
:100C30001A2E232E20003008A1002F08A0008E318C
:100C4000252685312B2E20003408A1003308A00072
:100C50008E312526853101302000B5070030B63DA4
:100C60003608803AA60080302602031D392E143043
:100C70003502031C3C2E3D2EFB2D2100BB01BC0187
:100C800093152000E801E90100308C316D24853195
:100C9000200068036904031D4E2E4F2E482EE801E4
:100CA000E9012100931108002000AC002C08031971
:100CB0005A2E5B2E6F2EA71F5E2E5F2E6F2E2409DD
:100CC000AE002509AF002609B0002709B100AE0A21
:100CD0000319AF0A0319B00A0319B10A772E2708BE
:100CE000B1002608B0002508AF002408AE00270890
:100CF000260425042404031D7E2E7F2E882E00301A
:100D0000A7000030A6000030A5000030A400002F8E
:100D10009630A8002808AD00982E0130A8002808B9
:100D2000AD070130B136B00CAF0CAE0C890B922E72
:100D3000FE303105031D9D2E9E2E8D2EB22E0130CC
:100D4000A8002808AD070130AE070030AF3D0030E5
:100D5000B03D0030B13D0130B136B00CAF0CAE0C3F
:100D6000890BAC2EFF303105031DB72EB82E9F2EF8
:100D7000C22E0130AD020130AE35AF0DB00DB10D58
:100D8000890BBC2EB01BC52EC62ECC2E02302D02D8
:100D90000318CB2ECC2EB92E2D18CF2ED02ED82E18
:100DA000FF30AE05FF30AF057F30B005FF30B10535
:100DB0000310AD0C2D08A800A901AA01AB01183041
:100DC000A835A90DAA0DAB0D890BE02E2808AE049D
:100DD0002908AF042A08B0042B08B1042C08031911
:100DE000F22EF32EF82EA71FF62EF72EF82EB1179F
:100DF0003108A7003008A6002F08A5002E08A4007F
:100E000008003D302000B500CC30B400CC30B30039
:100E1000CD30B20000308E3182268731200020088C
:100E2000CC002108CD00CE01CF014F08A7004E080D
:100E3000A6004D08A5004C08A400003086315426B9
:100E4000873120002708B9002608B8002508B70018
:100E50002408B60080315E2087312000350821004B
:100E6000C800200034082100C700200033082100FA
:100E7000C600200032082100C5003E302000B50029
:100E80009930B4009930B3009A30B20001308E31FD
:100E90008226873120002008CC002108CD00CE0119
:100EA000CF014F08A7004E08A6004D08A5004C082A
:100EB000A400003086315426873120002708B9006D
:100EC0002608B8002508B7002408B60080315E2047
:100ED0008731200035082100C4002000340821009B
:100EE000C300200033082100C20020003208210086
:100EF000C10022000C1501302100BB000030BC00F5
:100F000085316C25873122000C1102302100BB0095
:100F10000030BC0085316C2587312000EC01ED01EB
:100F200008008E31EC2687318B170B171430200008
:100F3000A0000F30A1008C31E1248731DE30200089
:100F4000A0000D30A1008C31EA2487314D30200003
:100F5000A0000C30A1008C31B42487315030200027
:100F6000A0000C30A1008C31BD24873161302000FD
:100F7000A0000C30A1008C31C624873167302000DE
:100F8000A0000C30A1008C31CF248731C730200065
:100F9000A0000E30A1008C319024873121009311E4
:100FA000843169248731873101278731D02F8031FF
:100FB0004228083023009F0090309D0024309E007E
:100FC00067309B009C0100302000A0000030A10091
:100FD0008C31A224873100302000A0000030A10015
:100FE0008C31AB24873100302000A0000030A100FC
:100FF0008C31992487312000EE0108000800080098
:101894000800080008002100BF0108002100BF0162
:1018A400BF0A08008130220097000800163021008A
:1018B400970008002000110E890C0139080002303D
:1018C400F00070082100BF0008000330F000700829
:1018D4002100BF0008002000A000200828009C0070
:1018E4000800640080010131890B742C00347030CD
:1018F400210099009801220096010800D3302100AC
:101904009E009B019C0101309D000800FF302000D7
:101914009B009A01911004309C00080020002108CB
:101924002100AB00200020082100AA0008002000AC
:1019340021082100B100200020082100B000080087
:10194400200021082100B500200020082100B40057
:101954000800200021082100B300200020082100F5
:10196400B2000800200021082100A900200020085E
:101974002100A8000800200021082100A700200061
:1019840020082100A6000800200021082100A5004D
:10199400200020082100A4000800200021082100C4
:1019A400A300200020082100A20008000C3026001B
:1019B400930091019201CF3025009E05080020007C
:1019C40021082100AD00200020082100AC000800FF
:1019D400200021082100A100200020082100A000EF
:1019E4000800F0002000111EF82CF92CF42C7008CB
:1019F40023009A0008003D302500930095018030B3
:101A040094000C30960092017F309100FC309E05CA
:101A140008002100280829040319112D122D172D5F
:101A240029088A0028080A008D31270016100800AA
:101A34002100260827040319202D212D262D2708EF
:101A44008A0026080A008D3127009611080021001B
:101A54002408250403192F2D302D352D25088A003F
:101A640024080A008D3127001612080021002208DC
:101A7400230403193E2D3F2D442D23088A002208F8
:101A84000A008D31270096120800F0012000111E73
:101A94004C2D4D2D542D23009E1E512D522D542D71
:101AA400F001F00A700808002000931021002C08AF
:101AB4002D0403195E2D5F2D642D2D088A002C083A
:101AC4000A008D3108002000931121002008210410
:101AD40003196D2D6E2D732D21088A0020080A002C
:101AE4008D3108002000911E782D792D742DEE0182
:101AF40023009D1C7E2D7F2D812D1D121D1619087E
:101B0400080020009901970196011110170821007F
:101B1400AF00200016082100AE00313020009800EC
:101B240008002000181D972D982D9F2D181071085E
:101B34009700700896001814A32D71089700700878
:101B440096000800053026009A00980199014A3051
:101B54002000A0000C30A1008C3190248D31200095
:101B64009312210093160800DE3028009600950198
:101B74002000931021009314FF302000A0000730B0
:101B8400A1008C31E1248D31073028009700080032
:101B9400DE3028009D009C01200093112100931544
:101BA400FE302000A0000730A1008C31EA248D31E2
:101BB400073028009E00080001302000EA070030AA
:101BC400EB3D18306A06031DEB2D6B03031DEB2D53
:101BD400EC2DF22D0130E8000030E900EA01EB01C0
:101BE40008002000931226001808F4007408F50079
:101BF4001908F4007408F6007608F3007508F2007A
:101C040021002B088A002A080A008E3108002000CF
:101C14002108A3002008A200A336A20CA336A20C1C
:101C2400220825009100200020080339A200043076
:101C3400A235890B1A2E25001308CF39200022045F
:101C440025009300080020002108A3002008A2001A
:101C5400A336A20CA336A20C220826009100200071
:101C640020080339A2000430A235890B362E260041
:101C74001308CF3920002204260093000800200016
:101C8400A401A501201C472E482E4C2E2208A4078F
:101C94002308A53D0130A235A30D890B4D2E01303B
:101CA400A136A00C890B522E20082104031D5B2EA3
:101CB4005C2E442E2508A1002408A000080027005B
:101CC400161C652E662E692E8D310B258E3127004C
:101CD400961D6D2E6E2E712E8D311A258E31270094
:101CE400161E752E762E792E8D3129258E312700DC
:101CF400961E7D2E7E2E812E8D3138258E31080044
:101D04002000A3002308A200A20DA20D21001D089B
:101D1400200022068339220621009D001D14033071
:101D2400890B922E000021009D149D189A2E9B2E43
:101D3400972E1C082000A10021001B082000A000F1
:101D440008002000A800A401A5012008A200A30106
:101D54002208A6002308A700281CB12EB22EB62EF6
:101D64002608A4072708A53D0130A635A70D890B31
:101D7400B72E0310A80C2808031DC12EC22EAE2EA8
:101D84002508A1002408A00008000030F000F1009C
:101D94008D3193258E3173082100CA007208C90061
:101DA40079037A04031DD72ED82EDD2E0130FB07CC
:101DB4000030FC3DEB2E79087A04031DE22EE32E5D
:101DC400EB2EFC1BE62EE72EEB2EFF30FB07FF303D
:101DD400FC3D08008F3146278E318C3179248E31B9
:101DE4008C3158248E318C3154248E318D31B6256A
:101DF4008E318C3188248E318D31CA258E318D31CE
:101E0400A4258E318C3180248E318C31FD248E3189
:101E14008C31D8248E318D3183258E318731D92769
:101E24008E3108000130F7070030F83D0E30770698
:101E34007804031D1E2F1F2F452FF201F301362FA7
:101E44008D3147258F31003A0319292F2A2F362F38
:101E54007208B63E8600870101088C31F3248F3165
:101E64000130F2070030F33D7308803AF10080300E
:101E74007102031D3F2F05307202031C422F432FB2
:101E8400222FF701F801080022008C018D01333064
:101E940021008C00FF308D00C03023008D00033002
:101EA4008C0024008D018C0121009517063022003E
:101EB4009D009E01270016109611161296121514F5
:101EC40095151516951614109411141294124B307E
:101ED4002000A0000C30A1008C31B4248F314C3090
:101EE4002000A0000C30A1008C31BD248F310230C1
:101EF4002000A0000030A1008C31C6248F310330B3
:101F04002000A0000030A1008C31CF248F318B152C
:101F1400080003102000220D230DA4002408AA00A9
:101F24002A08031D962F972FA02F0030A3000030FE
:101F3400A2000030A1000030A000FF2F2008A40060
:101F44002108A5002208A6002308A7001F30A736F1
:101F5400A60CA50CA40C890BA92F2408A8002808FA
:101F6400A900A217FF30A005FF30A105FF30A2058C
:101F74000030A3059630AA02AA1FC12FC22FDA2F60
:101F84002A08803A973E0318C82FC92FCA2F972FC3
:101F94000130A336A20CA10CA00C890BCB2F01306D
:101FA400A4002408AA07031DD82FD92FCA2FEF2F66
:101FB40020302A02031CDF2FE02FEA2F972F013055
:101FC400A035A10DA20DA30D890BE22F0130AA02A9
:101FD4002A08031DEE2FEF2FE12F29080319F32FF1
:101FE400F42FFF2FA009A109A209A309A00A03192C
:0C1FF400A10A0319A20A0319A30A08009D
:020000040001F9
:04000E00E43FFF3E8E
:00000001FF
