:020000040000FA
:1000000080313428080008007E1480318B1D0928B7
:100010000A2812280B1C0D280E2812288C31622465
:10002000803132280B1F1528162832282100931EF4
:100030001A281B2824282000931E1F282028242843
:100040008B31A423803132282100931C28282928B1
:1000500032282000931C2D282E2832288B313E2355
:10006000803132287E10090080313628A03084008B
:100070000030850029308A31412280312200AA01D6
:10008000AB01AC01AD01AE017E1020008631512ED6
:10009000200035088039BA003A08BF003535BA006B
:1000A0003A08C500B41F5528562857284514450856
:1000B00003195B285C286B28450A031D602861280A
:1000C00069280030B5000030B4000030B3000030C3
:1000D000B200B41773280030B5000030B40000300F
:1000E000B3000030B20039088039BA003A08BF06C0
:1000F0003935BA003A08C400B81F7F288028812803
:10010000441444080319852886289528440A031DA9
:100110008A288B2893280030B9000030B8000030BE
:10012000B7000030B600B8179D280030B900003085
:10013000B8000030B7000030B60044080319A12809
:10014000A228A7284508031DA628A728B028003004
:10015000B5000030B4000030B3000030B2009E2A79
:100160003208BA003A08A00038088C31A424803143
:1001700020002108CB002008CA004A08BA00BB01B1
:10018000BC01BD013D08C3003C08C2003B08C100E2
:100190003A08C0004B08BA00BB01BC01BD013D08D4
:1001A000C9003C08C8003B08C7003A08C60033082D
:1001B000BA003A08A00037088C31A424803120000E
:1001C0002108CB002008CA004A08BA00BB01BC01C4
:1001D000BD013A08C0073B08C13D3C08C23D3D088F
:1001E000C33D4B08BA00BB01BC01BD013A08C607BC
:1001F0003B08C73D3C08C83D3D08C93D3408BA002E
:100200003A08A00036088C31A4248031200021084F
:10021000CB002008CA004A08BA00BB01BC01BD01DE
:100220003A08C0073B08C13D3C08C23D3D08C33DFC
:100230004B08BA00BB01BC01BD013A08C6073B0828
:10024000C73D3C08C83D3D08C93D0830C035C10D1B
:10025000C20DC30D890B26293308BA003A08A00045
:1002600036088C31A424803120002108CB002008DE
:10027000CA004A08C0074B08C13D0030C23DC33D1B
:100280003208BA003A08A00037088C31A424803123
:1002900020002108CB002008CA004A08C0074B08EC
:1002A000C13D0030C23DC33D0830C035C10DC20D57
:1002B000C30D890B55293208BA003A08A000360848
:1002C0008C31A424803120002108CB002008CA00F2
:1002D0004A08C0074B08C13D0030C23DC33D33084A
:1002E000BA003A08A00038088C31A42480312000DC
:1002F0002108CB002008CA004A08C6074B08C73DA2
:100300000030C83DC93D3408BA003A08A00037089B
:100310008C31A424803120002108CB002008CA00A1
:100320004A08C6074B08C73D0030C83DC93D3408E0
:10033000BA003A08A00038088C31A424803120008B
:100340002108CB002008CA004A08BA004B08BB00AD
:10035000BC01BD010830BA35BB0DBC0DBD0D890B0C
:10036000AB293A08C6073B08C73D3C08C83D3D08D5
:10037000C93D4008BA004108BB004208BC00430820
:10038000BD001830BD36BC0CBB0CBA0C890BC229A1
:100390003A08C6073B08C73D3C08C83D3D08C93D73
:1003A0000830C035C10DC20DC30D890BD1294508D8
:1003B0004407BA00BB01BB0D3A08823ECA00FF30B9
:1003C0003B3DCB00FA290130C635C70DC80DC90D1C
:1003D000890BE429C31FED29EE29EF2946140130CA
:1003E000C035C10DC20DC30D890BF029FF30CA07FE
:1003F000FF30CB3DC81FFD29FE29E329C401C31FDF
:10040000022A032A1F2AFF304005BA00FF304105A7
:10041000BB00FF304205BC007F304305BD003D08F6
:100420003C043B043A040319162A172A1A2AC40169
:10043000C40A1F2A461C1D2A1E2A1F2A172A4408DE
:100440000319232A242A4C2A0130C6070030C73D4D
:100450000030C83D0030C93D491C2F2A302A4C2AA3
:100460004608BA004708BB004808BC004908BD0060
:100470000130BE00BD37BC0CBB0CBA0CBE0B3A2A17
:100480003D08C9003C08C8003B08C7003A08C60040
:100490000130CA070030CB3D4B08803ABA008030AB
:1004A0003A02031D552AFF304A02031C582A592AD2
:1004B000632A7F302000C9008030C8000030C700A8
:1004C0000030C600922A20004B08803ABA008030E3
:1004D0003A02031D6D2A01304A020318702A712A5C
:1004E0007C2A00302000C9000030C8000030C7005E
:1004F0000030C600BF01922A20004A08BA003A081C
:10050000C500FF30C605FF30C7057F30C805003085
:10051000C905451C8C2A8D2A8E2AC8174536BA0073
:100520003A08C9003F08BA003A08C9044908B500AA
:100530004808B4004708B3004608B200080000307D
:100540008C3183248231200020082100CB00200040
:1005500021082100CC00CD01CE014E082000A700CB
:1005600021004D082000A60021004C082000A50015
:1005700021004B082000A40000308F315327823126
:10058000200027082100C200200026082100C10009
:10059000200025082100C000200024082100BF0001
:1005A00042082000B900210041082000B8002100C5
:1005B00040082000B70021003F082000B6003E3070
:1005C000B500E530B400E330B3005430B200803100
:1005D0004820823120003508D3003408D200330887
:1005E000D1003208D0004030CF008030CE00003043
:1005F000CD000030CC0084319D24823120004F0892
:10060000E9004E08E8004D08E7004C08E6008E318E
:10061000D3268231200066082100CB004B08C80099
:1006200001308C3183248231200020082100CB004E
:10063000200021082100CC00CD01CE014E08200071
:10064000A70021004D082000A60021004C08200032
:10065000A50021004B082000A40000308F31532753
:100660008231200027082100BE002000260821003A
:10067000BD00200025082100BC0020002408210026
:10068000BB003E082000B90021003D082000B80052
:1006900021003C082000B70021003B082000B600E4
:1006A0003D30B500E130B4004730B300AE30B200A9
:1006B000803148208231200035082100D2002000FE
:1006C00034082100D100200033082100D000200090
:1006D00032082100CF0052082000B9002100510843
:1006E0002000B800210050082000B70021004F086A
:1006F0002000B6004030B5000030B4000030B30038
:100700000030B20080314820823120003508E900F5
:100710003408E8003308E7003208E6008E31D326BB
:100720008231200066082100CB004B08C70036301C
:100730002000B5008630B4003730B300BD30B200C1
:10074000210043082000A400210044082000A50047
:10075000A601A70100308F315327823120002708DE
:10076000B9002608B8002508B7002408B600803173
:100770004820823120003508CF003408CE003308ED
:10078000CD003208CC003F30D3005630D200453087
:10079000D100A230D00084319D24823120004F0846
:1007A0002100D20020004E082100D10020004D0879
:1007B0002100D00020004C082100CF004030200054
:1007C000B5008030B4000030B3000030B20021002A
:1007D00052082000B900210051082000B800210073
:1007E00050082000B70021004F082000B6008031DB
:1007F00048208231200035082100BA00200034084A
:100800002100B900200033082100B8002000320880
:100810002100B70026082704031D0F2C102C182CCC
:100820000030BA000030B9000030B8000030B70026
:100830003F302000B5005630B4004530B300A23040
:10084000B200210045082000A40021004608200035
:10085000A500890D893B8909A600A70001308F31C9
:100860005327823120002708B9002608B800250840
:10087000B7002408B60080314820823120003508B6
:100880002100B600200034082100B5002000330804
:100890002100B400200032082100B30030080339E1
:1008A000CB004B082200AA00210036082000E900F6
:1008B000210035082000E800210034082000E7006E
:1008C000210033082000E6008E31D326823120003B
:1008D00066367F3980382100CB004B082200AB0000
:1008E00021003A082000E900210039082000E80032
:1008F000210038082000E700210037082000E6002A
:100900008E31D3268231200066087F39803821005D
:10091000CB004B082200AC00210048087F3980380A
:10092000CB004B082200AD00210047087F398038FA
:10093000CB004B082200AE0008002000530880398D
:10094000D4005408DD005335D4005408E400D21F0D
:10095000AA2CAB2CAC2C641464080319B02CB12C59
:10096000C12C640A031DB52CB62CBE2C0030D3005C
:100970000030D2000030D1000030D000D217D301B7
:10098000C92C0030D3000030D2000030D10000303C
:10099000D0004F088039D4005408DD064F35D4000C
:1009A0005408E500CE1FD52CD62CD72C651465082D
:1009B0000319DB2CDC2CEC2C650A031DE02CE12C4C
:1009C000E92C0030CF000030CE000030CD000030E8
:1009D000CC00CE17CF01F42C0030CF000030CE0079
:1009E0000030CD000030CC004F084E044D044C04C4
:1009F000031DFB2CFC2C152D0030D3000030D20041
:100A00000030D1000030D0008030D2047F30D304D9
:100A10005D08D4005408D3045308CF005208CE0018
:100A20005108CD005008CC00502E6408031D192D2C
:100A30001A2D232D0030CF000030CE000030CD0025
:100A40000030CC00502E6408D400D5015508D700E2
:100A500065085402D600031CD70356087F3EDE000B
:100A60000030573DDF005308DC005208DB0051081E
:100A7000DA005008D9000030D3000030D200003036
:100A8000D1000030D0000030E3000030E200003040
:100A9000E1000030E000E5018B2D65080319512DC0
:100AA000522D6C2D0130D935DA0DDB0DDC0D890BA3
:100AB000532D0130D035D10DD20DD30D890B5A2DC8
:100AC000E31F632D642D652D50140130E035E10DD9
:100AD000E20DE30D890B662D4F085C02031D7A2D94
:100AE0004E085B02031D7A2D4D085A02031D7A2D14
:100AF0004C085902031C7D2D7E2D872D63174C0851
:100B0000D9024D08DA3B4E08DB3B4F08DC3B013095
:100B1000D4005408E5071A306502031C902D912D6E
:100B20004D2D5C085B045A0459040319982D992D26
:100B3000B22D6014B22D0130D035D10DD20DD30DB0
:100B4000890B9C2DE31FA52DA62DA72D5014013038
:100B5000E035E10DE20DE30D890BA82DFF30DE0736
:100B6000FF30DF3DD21FB52DB62D9B2DE501E31FD4
:100B7000BA2DBB2DD72DFF306005D400FF306105A5
:100B8000D500FF306205D6007F306305D7005708D7
:100B90005604550454040319CE2DCF2DD22DE50152
:100BA000E50AD72D501CD52DD62DD72DCF2D650874
:100BB0000319DB2DDC2D042E0130D0070030D13D90
:100BC0000030D23D0030D33D531CE72DE82D042EDC
:100BD0005008D4005108D5005208D6005308D70059
:100BE0000130D800D737D60CD50CD40CD80BF22D49
:100BF0005708D3005608D2005508D1005408D00039
:100C00000130DE070030DF3D5F08803AD4008030DD
:100C10005402031D0D2EFF305E02031C102E112EF8
:100C20001E2EFF302000DE000030DF000030D30039
:100C30000030D2000030D1000030D00020005F082A
:100C4000803AD40080305402031D282E01305E0209
:100C500003182B2E2C2E382E2000DE01DF01003051
:100C6000D3000030D2000030D1000030D000DD01D0
:100C700020005E08D4005408E400641C402E412E7D
:100C8000432ED217472E7F30D4005408D205643645
:100C9000D4005408D3005D08D4005408D3040C2DAC
:100CA00008008C31ED2486318B170B171230200091
:100CB000A0000D30A1008A31BE22863147302000CD
:100CC000A0000A30A1008A319122863155302000DF
:100CD000A0000A30A1008A319A228631C730200054
:100CE000A0000A30A1008A31A3228631D130200031
:100CF000A0000A30A1008A31AC228631B230200037
:100D0000A0000730A1008A316D2286310130220017
:100D1000A0000030A100FF302100E1000330E2001C
:100D20009B2E22000C1100302000A0000230A100F8
:100D30008B31ED23863120000D189F2EA02E912E91
:100D40002200A001A10100302000A000A1008B31F1
:100D5000D123863100302000A000A1008B31ED238B
:100D6000863100308C318324863120002008210018
:100D7000D900200021082100DA00DB01DC015C0839
:100D80002000A70021005B082000A60021005A08CF
:100D90002000A500210059082000A40000308F3158
:100DA00053278631200027082100C2002000260892
:100DB0002100C100200025082100C00020002408D7
:100DC0002100BF0042082000B90021004108200096
:100DD000B800210040082000B70021003F08200093
:100DE000B6003E30B500E530B400E330B300543017
:100DF000B20080314820863120003508D300340805
:100E0000D2003308D1003208D0004030CF0080300B
:100E1000CE000030CD000030CC0084319D248631DE
:100E200020004F08E9004E08E8004D08E7004C0894
:100E3000E6008E31D3268631200066082100D900D5
:100E40005908C80001308C318324863120002008E5
:100E50002100D900200021082100DA00DB01DC019B
:100E60005C082000A70021005B082000A6002100EC
:100E70005A082000A500210059082000A4000030D5
:100E80008F3153278631200027082100BE00200023
:100E900026082100BD00200025082100BC002000FC
:100EA00024082100BB003E082000B90021003D08B5
:100EB0002000B80021003C082000B70021003B08BA
:100EC0002000B6003D30B500E130B4004730B3003B
:100ED000AE30B20080314820863120003508210034
:100EE000E000200034082100DF002000330821004A
:100EF000DE00200032082100DD0060082000B9007B
:100F000021005F082000B80021005E082000B70023
:100F100021005D082000B6004030B5000030B4006C
:100F20000030B3000030B20080314820863120000C
:100F30003508E9003408E8003308E7003208E60025
:100F40008E31D3268631200066082100D900590849
:100F5000C7008C31252486318D31EC258631B12EA8
:100F6000803134280030F000F1008B316D2387315F
:100F70007A082100C4007908C30020000C1DC12F8D
:100F8000C22FC82F01302100C5070030C63DD52F24
:100F90000C19CB2FCC2FD52F2100C61BD02FD12F32
:100FA000D52FFF30C507FF30C63D220020032104A6
:100FB000031DDB2FDC2FFC2F21002508F100240866
:100FC000F000FF30F2000330F3008D318D258731C2
:100FD00070082100E1027108E23BE21FF02FF12FBF
:100FE000F52F0F30E1000030E2006208F1006108E7
:100FF000F0008B31BA238731080008000800080090
:1014660008008130220097000800163021009700FE
:1014760008002000110E890C013908006400800163
:101486000131890B422A00342100B001A201A301D7
:10149600C501C6010800703021009900980122009C
:1014A600960108002100B001B00A0130A200003008
:1014B600A3000800D33021009E009B019C0101304F
:1014C6009D000800FF3020009B009A019110043017
:1014D6009C000800200021082200A300200020080C
:1014E6002200A2000800200021082200A5002000FA
:1014F60020082200A4000800200021082200A900DC
:10150600200020082200A800080020002108220050
:10151600A700200020082200A600080020002108BD
:101526002100EA00200020082100E9000800200030
:1015360021082100E800200020082100E70008001B
:10154600200021082100E600200020082100E500F7
:101556000800200021082100E400200020082100C6
:10156600E30008000C302600930091019201CF3071
:1015760025009E050800200021082100EC0020001F
:1015860020082100EB0008000230F000700821005E
:10159600B0000230A2000030A30008000330F000C3
:1015A60070082100B0000330A2000030A30008003C
:1015B600F0002000111EE02AE12ADC2A7008230030
:1015C6009A0008003D302500930095018030940074
:1015D6000C30960092017F309100FC309E05080089
:1015E600210069086A040319F92AFA2AFF2A6A08F7
:1015F6008A0069080A008A312700161008002100AF
:10160600670868040319082B092B0E2B68088A0043
:1016160067080A008B31270096110800210065082B
:1016260066040319172B182B1D2B66088A006508FC
:101636000A008B3127001612080021006308640493
:101646000319262B272B2C2B64088A0063080A0013
:101656008B31270096120800F0012000111E342B52
:10166600352B3C2B23009E1E392B3A2B3C2BF001AD
:10167600F00A700808002000931021006B086C0423
:101686000319462B472B4C2B6C088A006B080A0063
:101696008B31080020009901970196011110170857
:1016A6002100EE00200016082100ED003130200058
:1016B600980008002000911E612B622B5D2B2100F3
:1016C600B20123009D1C682B692B6B2B1D121D1666
:1016D600190808002000181D712B722B792B181081
:1016E600710897007008960018147D2B71089700F2
:1016F600700896000800053026009A0098019901A6
:1017060033302000A0000A30A1008A316D228B31CF
:1017160020009312210093160800DE302800960060
:1017260095012000931021009314FD302000A000A5
:101736000730A1008A31BE228B310730280097007E
:1017460008002000931226001808FB007B08FC0006
:101756001908FB007B08FD007D08FA007C08F900EB
:10176600220023088A0022080A008B31080071082B
:10177600F3007008F200F336F20CF336F20C72083E
:101786002500910070080339F2000430F235890B08
:10179600C92B1308CF3972049300080020002108D2
:1017A600A3002008A200A336A20CA336A20C22088E
:1017B60025009100200020080339A2000430A2353C
:1017C600890BE22B25001308CF39200022042500BF
:1017D6009300080020002108A3002008A200A336D9
:1017E600A20CA336A20C2208260091002000200895
:1017F6000339A2000430A235890BFE2B26001308FC
:10180600CF3920002204260093000800200021087A
:10181600803AA20080302202031D132C01302002E0
:101826000318162C172C242C20002009A2002109AD
:10183600A300A20A0319A30A2208A0002308A100F4
:10184600242C08008A313C228C31003A03192C2CB6
:101856002D2C3E2C8B315D238C312100D300530877
:101866002000EF006F0803392100D300D40153088C
:10187600AC005408AD0082319F228C310800200054
:10188600A401A501201C482C492C4D2C2208A40794
:101896002308A53D0130A235A30D890B4E2C01303E
:1018A600A136A00C890B532C20082104031D5C2CA7
:1018B6005D2C452C2508A1002408A000080027005F
:1018C600161C662C672C6A2C8A31F3228C31270071
:1018D600961D6E2C6F2C722C8B3102238C312700B7
:1018E600161E762C772C7A2C8B3111238C312700FF
:1018F600961E7E2C7F2C822C8B3120238C31080067
:101906002000A3002308A200A20DA20D21001D089D
:10191600200022068339220621009D001D14033073
:10192600890B932C000021009D149D189B2C9C2C48
:10193600982C1C082000A10021001B082000A000F4
:1019460008002000A800A401A5012008A200A30108
:101956002208A6002308A700281CB22CB32CB72CFB
:101966002608A4072708A53D0130A635A70D890B33
:10197600B82C0310A80C2808031DC22CC32CAF2CAE
:101986002508A1002408A0000800083023009F00B5
:1019960090309D0024309E0067309B009C010030F3
:1019A6002000A0000030A1008A317F228C31003057
:1019B6002000A0000030A1008A3188228C3100303E
:1019C6002000A0000030A1008A3176228C3121004F
:1019D600B20108008D3147258C318A314E228C3177
:1019E6008A3138228C318A3134228C318A315D2217
:1019F6008C318B317E238C318A31E5228C318B31CF
:101A060090238C318A31B5228C318A3165228C3112
:101A16008B314D238C318C31C8248C310800013038
:101A26002100A8070030A93D0E3028062904031D11
:101A36001D2D1E2D462DF201F301362D8B312F2340
:101A46008D31003A0319282D292D362D72082A3E8C
:101A560086000130870001088A31DB228D31013092
:101A6600F2070030F33D7308803AF10080307102CE
:101A7600031D3F2D05307202031C422D432D212DDF
:101A86002100A801A901080022008C018D01333034
:101A960021008C00FF308D00C03023008D00033004
:101AA6008C00393024008D008C01210095130630FE
:101AB60022009D009E0127001610961116129612FE
:101AC60015149515151695161410941114129412D2
:101AD60002302000A0000030A1008A3191228D3111
:101AE60003302000A0000030A1008A319A228D31F7
:101AF600FF302000A0000730A1008A31A3228D31DB
:101B0600FE302000A0000730A1008A31AC228D31C2
:101B16008B150800F601F11F912D922D992DF009D4
:101B2600F109F00A0319F10AF601F60AF31F9C2DD2
:101B36009D2DA62DF209F309F20A0319F30A0130C5
:101B4600F4007408F606F701F80170087104031929
:101B5600AD2DAE2DDD2DF501F50ABA2D0130F0358E
:101B6600F10D890BB22D0130F4007408F507F11F51
:101B7600BD2DBE2DB12D0130F735F80D890BBF2DCA
:101B860071087302031DC92D70087202031CCC2D47
:101B9600CD2DD22D7008F2027108F33B7714013077
:101BA600F136F00C890BD32D0130F502031DDC2D27
:101BB600DD2DBE2D76080319E12DE22DE72DF7095F
:101BC600F809F70A0319F80A7808F1007708F0000F
:101BD600080021002308803AD7002D08803A5702D2
:101BE600031DF72D2C0822020318FA2DFB2D1E2E9D
:101BF60020000C19FF2D002E132E0030A000A1008E
:101C06008B31ED238D3106302100D8001330D700FB
:101C1600AD30890B0C2ED70B0C2ED80B0C2E0032A8
:101C260022000C1501302100A6000030A7008E31DD
:101C36005F268D314F2E21002D08803AD7002308CC
:101C4600803A5702031D292E22082C0203182C2E37
:101C56002D2E4F2E20000C1D312E322E452E0030FB
:101C6600A000A1008B31ED238D3106302100D80074
:101C76001330D700AD30890B3E2ED70B3E2ED80B36
:101C86003E2E003222000C1102302100A600003048
:101C9600A7008E315F268D31210023082D06031DF6
:101CA600562E22082C06031D592E5A2E5E2EA601EC
:101CB600A701AC01AD01080021002C08220220007A
:101CC600A00021002D08233B2000A1008C3109240F
:101CD6008E31200021082100A100200020082100CB
:101CE600A000C230D5000130D60021082000A10096
:101CF600210020082000A0004430A2000030A300EC
:101D06008C3142248E31200021082100A5002000BC
:101D160020082100A40001302200A0000030A1000C
:101D2600FF302100E1000330E200A62E5608200015
:101D3600A100210055082000A0008B31ED238E3133
:101D460082319F228E3121002D082306031DAD2EE0
:101D56002C082206031DB02EB12E992E003020002D
:101D6600A000A1008B31D1238E312200A001A10158
:101D760000302000A000A1008B31ED238E31210020
:101D8600A601A70115302100D4004B30D300BE3088
:101D9600890BCB2ED30BCB2ED40BCB2E00000800F9
:101DA60003102000680D690DEA006A082100CA00C8
:101DB6004A08031DDF2EE02EEA2E00302000E9003F
:101DC6000030E8000030E7000030E600522F200027
:101DD6006608EA006708EB006808EC006908ED0091
:101DE6001F30ED36EC0CEB0CEA0C890BF42E6A086E
:101DF600EE006E082100C9002000E817FF30E60556
:101E0600FF30E705FF30E8050030E9059630210090
:101E1600CA02CA1F0F2F102F2A2F4A08803A973E50
:101E26000318162F172F182FE02E01302000E93641
:101E3600E80CE70CE60C890B192F0130EA006A085A
:101E46002100CA07031D282F292F182F412F2030C4
:101E56004A02031C2F2F302F3C2FE02E013020008A
:101E6600E635E70DE80DE90D890B322F013021002B
:101E7600CA024A08031D402F412F312F4908031972
:101E8600452F462F522F2000E609E709E809E90900
:101E9600E60A0319E70A0319E80A0319E90A08001A
:101EA6002000AC002C080319592F5A2F6E2FA71F9C
:101EB6005D2F5E2F6E2F2409AE002509AF0026097F
:101EC600B0002709B100AE0A0319AF0A0319B00A18
:101ED6000319B10A762F2708B1002608B000250895
:101EE600AF002408AE002708260425042404031D99
:101EF6007D2F7E2F872F0030A7000030A6000030F0
:101F0600A5000030A400FF2F9630A8002808AD00D9
:101F1600972F0130A8002808AD070130B136B00C64
:101F2600AF0CAE0C890B912FFE303105031D9C2F93
:101F36009D2F8C2FB12F0130A8002808AD07013046
:101F4600AE070030AF3D0030B03D0030B13D01304E
:101F5600B136B00CAF0CAE0C890BAB2FFF30310590
:101F6600031DB62FB72F9E2FC12F0130AD020130B2
:101F7600AE35AF0DB00DB10D890BBB2FB01BC42F05
:101F8600C52FCB2F02302D020318CA2FCB2FB82F07
:101F96002D18CE2FCF2FD72FFF30AE05FF30AF0530
:101FA6007F30B005FF30B1050310AD0C2D08A80039
:101FB600A901AA01AB011830A835A90DAA0DAB0DD0
:101FC600890BDF2F2808AE042908AF042A08B004BD
:101FD6002B08B1042C080319F12FF22FF72FA71F96
:101FE600F52FF62FF72FB1173108A7003008A600F6
:0A1FF6002F08A5002E08A400080023
:020000040001F9
:04000E00E43FFF3E8E
:00000001FF
